:020000040800F2
:1000000000500020F92C0008ED230008EF23000821
:10001000F1230008F3230008F52300080000000086
:10002000000000000000000000000000F7230008AE
:10003000F923000800000000FB230008FD2300084E
:10004000412D0008412D0008412D0008412D0008D8
:10005000412D0008412D0008412D0008412D0008C8
:10006000412D0008412D0008412D0008412D0008B8
:10007000412D0008412D0008412D0008412D0008A8
:10008000412D0008412D0008412D0008412D000898
:10009000412D0008412D0008412D0008412D000888
:1000A000412D0008412D0008412D0008412D000878
:1000B000412D0008412D0008412D0008412D000868
:1000C000412D0008412D0008412D0008412D000858
:1000D000412D0008012400081D240008412D0008BE
:1000E000412D0008412D0008412D000800000000AE
:1000F0000000000000000000000000000000000000
:0C01000000000000000000005FF808F1A3
:10010C0010B5054C237833B9044B13B10448AFF345
:10011C0000800123237010BDDC3E00200000000095
:10012C00204B000808B5034B1BB103490348AFF340
:10013C00008008BD00000000E03E0020204B0008BD
:10014C0073B50021082501233A22084600F024FF4C
:10015C0001233B220021102000F01EFF0123382236
:10016C000021202000F018FF01233922002130202B
:10017C0000F012FF644C0123022214210020009590
:10018C0000F09AFF0123002214210A20009500F0B0
:10019C0093FF2378092B63D910231421009308466D
:1001AC0002232278012500F087FF584B2E221421C0
:1001BC002820009500F0A4FE6378092B5DD910234C
:1001CC0014210093322002236278012500F074FF81
:1001DC004E4B2E2214214620009500F091FEA37860
:1001EC00092B58D910231421009350200223A278F4
:1001FC0000F062FFE378092B5BD9102328210093D0
:10020C0014200223E27800F057FF012528213F4BF0
:10021C003A220846009500F073FE2379092B56D933
:10022C00102328210093322002232279012500F08B
:10023C0043FF364B3A2228214620009500F060FE01
:10024C006379092B51D910232821009350200223C4
:10025C00627900F031FF02B0BDE8704000F010BED2
:10026C001421012308460022009500F025FF0123EC
:10027C0014211E202278009594E708262B46002294
:10028C0014213220009600F017FF2B4614213C203D
:10029C006278009699E708262B46002214215020FC
:1002AC00009600F009FF2B4614215A20A2780096E4
:1002BC009EE708250123002228211420009500F038
:1002CC00FBFE012328211E20E27800959BE70826DF
:1002DC002B46002228213220009600F0EDFE2B4602
:1002EC0028213C2022790096A0E708262B460022E4
:1002FC0028215020009600F0DFFE2B4628215A20A2
:10030C0062790096A5E700BFC83E00204C3F002054
:10031C0038B500F0CFFD0020FFF712FF012400F0EC
:10032C0005FA0138032808D8DFE800F004161B1A78
:10033C001C46F4E7204601F087F900F0BBFD20468F
:10034C00FFF7FEFE002500F0E1FB0638032836D847
:10035C00DFE800F009161A31204601F02BFAECE721
:10036C00023C0125EFE7204601F06EF900F0A2FDFA
:10037C00204600F0B5FF00F0CFFB002DCFD005E0FC
:10038C00204601F017FAF1E700F0C6FB052C04F14A
:10039C000103CDD9002B0ADD01F092FF00230C489C
:1003AC000C49C25CD2B2CA540133062BF9D1BDE858
:1003BC00384000F07FBD00F0AFFB023CE6E700F0F8
:1003CC00ABFB00F077FD2046FFF7BAFED5E700BF88
:1003DC00C83E00205A3F002013B500210124012300
:1003EC003A22084600F0D8FD01233B2200211020C0
:1003FC0000F0D2FD012342220021202000F0CCFD90
:10040C00012343220021302000F0C6FD01234422A9
:10041C001421002000F0C0FD1421114B114A00944E
:10042C00102000F021FE23463C221421302000F045
:10043C00B3FD23463D221421402000F0ADFD2346A0
:10044C003A221421502000F0A7FD23463B22142110
:10045C00602000F0A1FD02B0BDE8104000F010BD1E
:10046C004C3F0020DC4B000837B50022694623487E
:10047C0003F050FD002201A9204803F061FE204B3F
:10048C009DF807101A78914231D15A789DF80510D1
:10049C0091422CD19A789DF80610914227D1DA78A6
:1004AC009DF80010914222D11A799DF801109142C9
:1004BC001DD15B799DF802209A4218D101F060FEA3
:1004CC0000F0F8FC00F032F9054600F01FFB044682
:1004DC0000F022FB042D01D00A2C0AD100F0EAFC1A
:1004EC0000220221074802F031FE01F001FD03B0A9
:1004FC0030BD00F07DF9FFF76FFFE3E768430020A4
:10050C005A3F0020000C0140F7B5002101241025B2
:10051C001E4F1F4E01232322084600F03DFD0123F0
:10052C0024220021102000F037FD3B4632460021EA
:10053C000094202000F098FD164B00211A782820FA
:10054C000223009500F0B8FD23462522142100203B
:10055C0000F022FD234624221421284600F01CFD25
:10056C003B46324614210094202000F07DFD0A4BBE
:10057C0014211A7828200223009500F09DFD00F02C
:10058C00D1FA03B0BDE8F04000F07ABC4C3F00203B
:10059C00C14B0008C23E0020C13E002008B50A4BEA
:1005AC001A78012AD3B204D100214D22084600F05A
:1005BC00F3FC00F0F1FA00F02FFB01F083FBBDE837
:1005CC00084000F05DBC00BF573F00201022F0B582
:1005DC0089B00DEB0200002104F094FA284B294D50
:1005EC009A69284642F010029A619A69022102F037
:1005FC0010020092009A9A69002442F020029A613B
:10060C009A69012602F020020192019A9A691E4F02
:10061C0042F004029A619A6902F004020292029A70
:10062C009A6942F008029A619B69002203F0080360
:10063C000393039B02F08AFDE023384604A9CDE91D
:10064C000434069602F0A2FC2123284604A9CDE925
:10065C000434069602F09AFC0223284604A9CDE93C
:10066C000436CDE9064302F091FC4FF48073384612
:10067C0004A9CDE90434069402F088FC09B0F0BD5D
:10068C0000100240000C01400008014008B50B4866
:10069C000B4A0C4BC0E9002300234FF48042C0E905
:1006AC000233C0E90423C0E90633036202F09AFE68
:1006BC0018B1BDE8084000F083B908BDF83E002031
:1006CC0000540040A086010010B5044686B01022EC
:1006DC00002102A804F016FA2268114B9A421CD190
:1006EC00104CC022A369104843F00803A361A3690E
:1006FC0002A903F008030093009B1223CDE9022307
:10070C000323059302F042FCE36943F40013E36115
:10071C00E36903F400130193019B06B010BD00BF05
:10072C000054004000100240000C014010B5202184
:10073C002D4802F005FD88B9142002F045FB20215C
:10074C00294802F0FDFC00284BD1274C20212046E3
:10075C0002F0F6FC0028F9D0012010BD40212248FF
:10076C0002F0EEFC88B9142002F02EFB40211E484A
:10077C0002F0E6FC002834D11B4C4021204602F04C
:10078C00DFFC0028F9D00220E7E78021164802F0B0
:10079C00D7FC80B9142002F017FB8021124802F01C
:1007AC00CFFCF0B9104C8021204602F0C9FC002887
:1007BC00F9D00320D1E701210C4802F0C1FC80B92B
:1007CC00142002F001FB0121084802F0B9FC40B9E9
:1007DC00064C0121204602F0B3FC0028F9D004207D
:1007EC00BBE70020B9E700BF00080140000C014046
:1007FC0010B5094C00220221204602F0A7FCFA2079
:10080C0002F0E2FA20460122022102F09FFCBDE830
:10081C001040FA2002F0D8BA000C01400821102236
:10082C00014BC3E9001270474C3F002030B595B026
:10083C00142200210CA804F065F9142200210DEB00
:10084C00020004F05FF91022002101A804F05AF90B
:10085C0002254FF4803305220124CDE90A23CDE98A
:10086C0011534FF4E0130AA8CDE90D44139302F091
:10087C00F7FE08B172B6FEE70F23CDE905354FF44C
:10088C0080630790CDE90830294605A803F0AAF843
:10089C0008B172B6FEE74FF4807301A8019402937D
:1008AC0003F05CF908B172B6FEE715B030BD00007C
:1008BC0010B502F065FAFFF7B9FFFFF787FEFFF7F7
:1008CC00E5FE00F041FC01F0ABFD01F0F1FD01F0A3
:1008DC000FFE01F02FFEFFF7A1FF00F077FA00F0FA
:1008EC00C9FCFFF7C1FD00F09FF800F00FF90528D7
:1008FC003FD007D8C0B3022820D000F00DF901F08A
:10090C00AFF81BE01228F8D100F0D4FA00F004F98B
:10091C0000F0FCF8044600F0FFF8122C1ED100F099
:10092C00C9FA00F0F3F8044600F0F6F8122C18D1CE
:10093C0000F0C0FA01F00DFD00F0BCFAFFF7F6FE76
:10094C000138032839D801A353F820F0890900088D
:10095C00EF080008BB090008C1090008FFF7D4FD27
:10096C00D6E7FFF71BFEDCE700F0D6F800F0E6FF59
:10097C00E4E700F0D1F8FFF7CBFCDFE700F09AFAE0
:10098C00FFF7D4FE01280CD100F094FAFFF7CEFE4D
:10099C00012809D100F08EFA01F0DBFC00F08AFA94
:1009AC009FE7FFF7B1FDEBE7FFF7F8FDEEE700F08F
:1009BC00C5FF96E7FFF7ACFC93E701F051F890E721
:1009CC0072B6FEE707B56B46064A106851680822F6
:1009DC0003C34FF6FF736946034803F046FE03B0AA
:1009EC005DF804FB384B0008AC44002007B500212F
:1009FC0001231422084600F0CFFA01230B22002118
:100A0C00102000F0C9FA012300210093044A054B81
:100A1C00202000F029FB03B05DF804EB00F030BAA5
:100A2C00B24B00084C3F002038B52021204802F082
:100A3C0087FB98BB0A2002F0C7F920211C4802F062
:100A4C007FFB38BB1B4C01220221194802F07EFBB4
:100A5C0000F030FA237843B901224FF47A7311462F
:100A6C00154803F002FE01232370FFF7ABFFFFF7DD
:100A7C00BDFF0F4D2021284602F062FB58B1002229
:100A8C0002210B4802F062FB00F014FA01F030FA7C
:100A9C000023237038BDFFF7ABFEEBE700220221E9
:100AAC00034802F053FB0022024B1A70F2E700BF1E
:100ABC00000C0140583F00206444002013B5114C39
:100ACC0069460022204603F025FA0022204601A99F
:100ADC0003F036FB0C4B9DF807201A709DF805208F
:100AEC005A709DF806209A709DF80020DA709DF8D7
:100AFC0001201A719DF802205A719DF804209A71F8
:100B0C0002B010BD68430020C83E0020014B18788D
:100B1C00704700BFC03E0020FF22014B1A70704787
:100B2C00C03E002010B51B4C2278012AD3B204D150
:100B3C0047222821002000F02FFA2378022B05D120
:100B4C00012348222821002000F026FA2378032BC9
:100B5C000BD1012349222821002000F01DFA01238A
:100B6C004A222821142000F017FA2378042B05D1EF
:100B7C0001234B222821002000F00EFA2378052BAC
:100B8C0007D1BDE8104001234C222821002000F0A1
:100B9C0003BA10BD593F002010B51E4B1B78013B0A
:100BAC000B2B36D8DFE803F00614171A1D2023266A
:100BBC00292C2F32012331220021142000F0ECF9D2
:100BCC00BDE81040012333220021282000F0E4B9B5
:100BDC0001232822F0E701232922EDE701232A2211
:100BEC00EAE701232B22E7E701232C22E4E7012388
:100BFC002D22E1E701232E22DEE701232F22DBE762
:100C0C0001233022D8E701231E22D5E7012332220B
:100C1C00D2E710BD563F002010B5594B1B78013B55
:100C2C001D2B00F2AC80DFE803F00F1D262F38419E
:100C3C004A535C656E7174777A7D808386898C8F5C
:100C4C009295989B9EA1A4A70123342200213C20BD
:100C5C0000F0A2F901232722BDE81040002150200A
:100C6C0000F09AB90123342200213C2000F094F9C1
:100C7C0001232822F0E70123342200213C2000F03C
:100C8C008BF901232922E7E70123342200213C20A0
:100C9C0000F082F901232A22DEE70123342200210D
:100CAC003C2000F079F901232B22D5E701233422D3
:100CBC0000213C2000F070F901232C22CCE7012309
:100CCC00342200213C2000F067F901232D22C3E7D8
:100CDC000123342200213C2000F05EF901232E2256
:100CEC00BAE70123342200213C2000F055F90123FE
:100CFC002F22B1E70123342200213C2000F04CF9D3
:100D0C0001233022A8E7012330229FE70123302260
:100D1C00AAE701233022B0E701233022B6E70123F2
:100D2C003022BCE701233022C2E701233022C8E77E
:100D3C0001233022CEE701233022D4E701232822DD
:100D4C00DAE70123352281E7012335228CE70123E1
:100D5C00352292E70123352298E7012335229EE7BD
:100D6C0001233522A4E701233522AAE701233522EA
:100D7C00B0E701233522B6E701232922BCE710BDD9
:100D8C00553F00207FB501236422CDE901320DF1DE
:100D9C0017028DF81700009278210022024802F009
:100DAC00C9FB07B05DF804FBF83E00201FB56423B7
:100DBC000090CDE90113402201237821024802F072
:100DCC00B9FB05B05DF804FBF83E002008B5AE2079
:100DDC00FFF7D8FFAE20FFF7D5FF2020FFF7D2FF9B
:100DEC001020FFF7CFFFB020FFF7CCFFC820FFF794
:100DFC00C9FF0020FFF7C6FF1020FFF7C3FF4020FC
:100E0C00FFF7C0FF8120FFF7BDFFFF20FFF7BAFF00
:100E1C00A120FFF7B7FFA620FFF7B4FFA820FFF72C
:100E2C00B1FF3F20FFF7AEFFA420FFF7ABFFD320AD
:100E3C00FFF7A8FF0020FFF7A5FFD520FFF7A2FFC3
:100E4C00F020FFF79FFFD920FFF79CFF2220FFF730
:100E5C0099FFDA20FFF796FF1220FFF793FFDB20B4
:100E6C00FFF790FF2020FFF78DFF8D20FFF78AFF03
:100E7C001420FFF787FFBDE80840AF20FFF782BFC3
:100E8C0038B5B0240A4D2046FFF77CFF0020FFF751
:100E9C0079FF01341020FFF775FFE4B2284680215A
:100EAC00FFF784FFB82C05F18005ECD138BD00BFED
:100EBC00603F002008B54FF480620021034803F026
:100ECC0021FEBDE80840FFF7DBBF00BF603F0020FC
:100EDC007F2830B511D83F290FD80124CB08074DF6
:100EEC0000EBC31001F007012B5604FA01F149B2D3
:100EFC00A2420CBF0B438B432B5430BD603F0020F0
:100F0C002DE9F84F1D46214C164623882A689DF87A
:100F1C00288013447F2B37D863886A6813443F2B8F
:100F2C0032D81B4B1B780BB9208061800027A6F1AF
:100F3C00200A6B68BB4206D822882B681344238096
:100F4C003046BDE8F88F4FF0000903FB0A73114AD5
:100F5C0052F823B02A682088914501D30137E8E77D
:100F6C000BFA09F2130658BFB8FA88F261884844A4
:100F7C00394448BF424680B289B258BF5209FFF784
:100F8C00A7FF09F10109E5E70026D9E76243002034
:100F9C0060430020000000202DE9F74F1F462F4B27
:100FAC0014461B78DFF8B8801BB9A8F80000A8F825
:100FBC000210B8F800506F2D4ED8B8F802A0BAF154
:100FCC002F0F49D8274E0AF1100905F1080306EB3B
:100FDC00C4161FFA89F901934FF0000B3368009384
:100FEC00009B05EB0B0003FA0BF2120656BFB7FA87
:100FFC0087F23A465209514680B20BF1010BFFF7CA
:10100C0067FFBBF1080FEBD14FF0000B7368009337
:10101C00019B514603EB0B00009B80B203FA0BF2D1
:10102C00130656BFB7FA87F23A4652090BF1010B79
:10103C00FFF74EFFBBF1080FEAD10AF101011FFACD
:10104C0081FAD14506F10806C6D11035A8F8005032
:10105C00E0B203B0BDE8F08F0020FAE76043002057
:10106C0062430020C01700202DE9F7439846012366
:10107C0005460E460E4F9DF828903B700D4B541EA6
:10108C001880598014F8012F0AB93A700BE04346C6
:10109C0031462846CDF80090FFF732FF2278904277
:1010AC00F0D000233B70104603B0BDE8F08300BFC6
:1010BC0060430020624300202DE9F04F00260446D7
:1010CC00B3464FF00A0A894685B09DF838800392E2
:1010DC005F1E4FEA5802DFF86C800292FDB2FF2DC2
:1010EC0025D105B0BDE8F08F0AFB02F20138C0B281
:1010FC00FF28F9D1039BB3FBF2F2B2FBFAF00AFB27
:10110C001022D0B2BBF1000F15D1B74213DD012371
:10111C0082B900932022434620464946FFF7F0FE51
:10112C00029B013D1C440136A4B2EDB2D7E7284620
:10113C000122DBE79B4600F1300201204346009080
:10114C00D2B2E9E74C3F0020002313B5ADF80030D4
:10115C008DF8023001934FF0FF331648164AC0E960
:10116C0000234FF48073836003F032F808B1FFF76B
:10117C0027FC0124694622460E488DF800408DF864
:10118C0001408DF8024002F076FE08B1FFF718FC22
:10119C000122084801A98DF804408DF805408DF80E
:1011AC0006408DF8074002F073FF08B1FFF708FC0A
:1011BC0002B010BD684300200028004007B50B4B5F
:1011CC0002689A420FD102F045FA094BDA6942F0F3
:1011DC000062DA610122DB6903F000630193019B79
:1011EC00044BC3F83C2403B05DF804FB002800401A
:1011FC00001002400000424237B500210124194D75
:10120C00012338220846FFF7C7FE012339220021AB
:10121C001020FFF7C1FE2B460021134A009420201A
:10122C00FFF722FF2B461421104A00940020FFF7F1
:10123C001BFF2346224614212820FFF7ADFE2B4628
:10124C0028210B4A00940020FFF70EFF282123468B
:10125C003C220846FFF7A0FE03B0BDE83040FFF784
:10126C000FBE00BF4C3F0020B64B0008BD4B000822
:10127C00C34B000838B5FFF759FA0546FFF746FC93
:10128C000446FFF749FCFFF715FE6B1EDBB2012B82
:10129C0011D9102C1ED0112C02D100220F4B1BE0A7
:1012AC00FFF7AAFFFFF742FA0546FFF72FFC0446AB
:1012BC00FFF732FCE9E7012D18BF0022074B0CBFEA
:1012CC001D701A70102C05D0112CE6D0BDE83840DA
:1012DC00FFF7F0BD0122014B1A70F7E7543F0020D5
:1012EC0073B50021012338220846FFF755FE012370
:1012FC00392200211020FFF74FFE01231F2200216D
:10130C002020FFF749FE0123202200213020FFF787
:10131C0043FE40220825012300211046FFF73CFE26
:10132C000123412200215020FFF736FE644C01239B
:10133C000222142100200095FFF7BEFE012300229B
:10134C0014210A200095FFF7B7FE2378092B63D9E7
:10135C001023142100930846022322780125FFF75D
:10136C00ABFE584B2E22142128200095FFF7C8FD08
:10137C006378092B5DD910231421009332200223AA
:10138C0062780125FFF798FE4E4B2E221421462041
:10139C000095FFF7B5FDA378092B58D9102314211C
:1013AC00009350200223A278FFF786FEE378092BE6
:1013BC005BD910232821009314200223E278FFF735
:1013CC007BFE012528213F4B3A2208460095FFF76A
:1013DC0097FD2379092B56D910232821009332200D
:1013EC00022322790125FFF767FE364B3A2228218A
:1013FC0046200095FFF784FD6379092B51D9102302
:10140C0028210093502002236279FFF755FE02B089
:10141C00BDE87040FFF734BD1421012308460022BB
:10142C000095FFF749FE012314211E202278009518
:10143C0094E708262B460022142132200096FFF751
:10144C003BFE2B4614213C206278009699E7082637
:10145C002B460022142150200096FFF72DFE2B4620
:10146C0014215A20A27800969EE708250123002219
:10147C00282114200095FFF71FFE012328211E2090
:10148C00E27800959BE708262B4600222821322083
:10149C000096FFF711FE2B4628213C20227900965E
:1014AC00A0E708262B460022282150200096FFF7A3
:1014BC0003FE2B4628215A2062790096A5E700BF2F
:1014CC00C83E00204C3F00205E4B01281A7856D1B4
:1014DC0092070BD15A78022A08D19A781D2A05D185
:1014EC005A780132D2B25A70987070471A789007B5
:1014FC000BD05A78022A08D19A781C2A05D15A782E
:10150C000132D2B25A70012224E05A78012A11D049
:10151C005A78032A0ED05A78052A0BD05A78072A03
:10152C0008D05A78082A05D05A780A2A02D05A7854
:10153C000C2A11D19A781F2A0ED15A780C2ADED196
:10154C001A78632A0FBF00221A780132D2B21A70AD
:10155C0001225A709A7070475A78042A08D05A7827
:10156C00062A05D05A78092A02D05A780B2A02D1B9
:10157C009A781E2AC3D09A780132D2B2EAE7910740
:10158C000BD15A78032A08D19A78012A05D15A78B6
:10159C00013AD2B25A701D22DCE71A7892070BD0AE
:1015AC005A78032A08D19A78012A05D15A78013A37
:1015BC00D2B25A701C22CDE75A78022A11D05A782E
:1015CC00042A0ED05A78062A0BD05A78082A08D04A
:1015DC005A78092A05D05A780B2A02D05A78012A4F
:1015EC0018D19A78012AD1B214D15A78012A0BD188
:1015FC001A782AB963221A700C225A701F22A9E792
:10160C001A78013AD2B2F6E75A78013AD2B25A7045
:10161C00997070475A78052A08D05A78072A05D04D
:10162C005A780A2A02D05A780C2A08D19A78012AB8
:10163C0005D15A78013AD2B25A701E228AE79A78AA
:10164C00013A9AE7C83E0020013810B505280DD89C
:10165C00DFE800F0030D20707A8D554A1378632B68
:10166C000FBF002313780133DBB2137010BD504B46
:10167C005A780C2A0AD11A78632A0FBF00221A78DA
:10168C000132D2B21A7001225A70EFE75A78013245
:10169C00D2B2F9E7464B5A78022A11D11A7891073F
:1016AC0008D19A781D2A05D15A780132D2B25A70D3
:1016BC0001222AE01A78920702D09A781C2AF3D0D9
:1016CC005A78012A11D05A78032A0ED05A78052A52
:1016DC000BD05A78072A08D05A78082A05D05A789D
:1016EC000A2A02D05A780C2A11D19A781F2A0ED1C4
:1016FC005A780C2AD8D11A78632A0FBF00221A788C
:10170C000132D2B21A7001225A709A70AEE75A782E
:10171C00042A08D05A78062A05D05A78092A02D009
:10172C005A780B2A02D19A781E2ABDD09A780132A7
:10173C00D2B2EAE71E4AD378172B0FBF0023D37817
:10174C000133DBB2D37091E7194B1A793B2A0AD1DA
:10175C00DA78172A0FBF0022DA780132D2B2DA70A7
:10176C0000221A7182E71A790132D2B2F9E7104CD1
:10177C0063793B2B18D123793B2B11D1E378172BB1
:10178C0009D100230120E370FFF79EFE0023237193
:10179C00002363716AE7E3780133DBB2E370F5E7AA
:1017AC0023790133DBB2F2E763790133DBB2F0E783
:1017BC00C83E0020013810B5052809D8DFE800F034
:1017CC00030D20818B9D5C4A137813B9632313702E
:1017DC0010BD1378013BDBB2F9E7574B5A78012A5D
:1017EC000AD11A7822B963221A700C225A70EFE7C8
:1017FC001A78013AD2B2F7E75A78013AD2B2F5E741
:10180C004D4B5A78032A18D11A78910709D19A7836
:10181C00012A06D15A78013AD2B25A701D229A7016
:10182C00D6E71A78920708D09A78012A05D15A7807
:10183C00013AD2B25A701C22F1E75A78022A11D01E
:10184C005A78042A0ED05A78062A0BD05A78082ACD
:10185C0008D05A78092A05D05A780B2A02D05A781F
:10186C00012A15D19A78012A12D15A78012A0BD162
:10187C001A782AB963221A700C225A701F22CEE7EA
:10188C001A78013AD2B2F6E75A78013AD2B2F4E7B2
:10189C005A78052A08D05A78072A05D05A780A2A85
:1018AC0002D05A780C2A08D19A78012A05D15A7894
:1018BC00013AD2B25A701E22B1E79A78013AD2B2EA
:1018CC00ADE71D4AD37813B91723D37080E7D378CB
:1018DC00013BDBB2F9E7184B1A7952B9DA7822B925
:1018EC001722DA703B221A7172E7DA78013AD2B217
:1018FC00F7E71A79013AD2B2F5E70F4C6379BBB925
:10190C0023798BB9E37803F0FF0043B91723E37015
:10191C00FFF7DAFD3B2323713B23637158E7E37830
:10192C00013BDBB2E370F5E72379013BDBB2F2E775
:10193C006379013BDBB2F0E7C83E002037B5FFF717
:10194C00BDF8FFF7B7FA0020FFF7CAFC0124FEF739
:10195C00EDFE0138032808D8DFE800F004161B1A46
:10196C001C46F4E72046FFF76FFEFFF7A3FA20466C
:10197C00FFF7B6FC0025FFF7C9F80138032862D839
:10198C00DFE800F009161A5D2046FFF713FFECE7BD
:10199C00023C0125EFE72046FFF756FEFFF78AFAD7
:1019AC002046FFF79DFCFFF7B7F8002DCFD005E0E0
:1019BC002046FFF7FFFEF1E7FFF7AEF8052C04F128
:1019CC000103CDD9002B35DD0024FFF753FC224B4E
:1019DC006946DA7821488DF800201A798DF8044090
:1019EC008DF801205A798DF802205A788DF805204F
:1019FC009A781B788DF8062022468DF8073002F075
:101A0C003AFA224601A9154802F042FB22466946E1
:101A1C00124802F07FFA224601A9104802F090FB0E
:101A2C00224669460D4802F026FA22460B4801A9C7
:101A3C0002F02EFB03B0BDE83040FFF73BBAFFF7D6
:101A4C006BF8023CBAE7FFF767F8FFF733FA20466A
:101A5C00FFF746FCA9E700BFC83E00206843002002
:101A6C0030B585B0002202A9914802F053FA002249
:101A7C0003A98F4802F064FB0824002101230846C7
:101A8C0002220094FFF718FB0022012311460A20C2
:101A9C000094FFF711FB9DF80F20092A40F2838078
:101AAC00102300210093142002230124FFF704FBD0
:101ABC002E22002128207F4B0094FFF721FA9DF85D
:101ACC000D20092A7DD910230021009332200223F6
:101ADC000124FFF7F1FA2E2200214620754B0094C9
:101AEC00FFF70EFA9DF80E20092A79D91023002150
:101AFC00009350200223FFF7DFFA6F4B9DF808206C
:101B0C001B78012BDCB240F0A4800B2A694B0094AB
:101B1C0040F28580694A14210020FFF7A5FA9DF850
:101B2C000820152A6BD91023009302230C3A142198
:101B3C0008460124FFF7C0FA3A22142128205D4BF5
:101B4C000094FFF7DDF99DF80920092A40F28D80F9
:101B5C00102314210093322002230124FFF7ACFA46
:101B6C003A2214214620534B0094FFF7C9F99DF8F3
:101B7C000A20092A40F28880102314210093502057
:101B8C000223FFF799FA08239DF80C000093012318
:101B9C00002840F0888007222821FFF78DFAFFF7F4
:101BAC006FF905B030BD00220123114614200094BA
:101BBC00FFF782FA012300211E209DF80F200094CC
:101BCC0073E7002208251146234632200095FFF7C3
:101BDC0073FA234600213C209DF80D20009577E7F1
:101BEC00002208251146234650200095FFF764FA81
:101BFC00234600215A209DF80E2000957BE70825EE
:101C0C0014212346002208460095FFF755FA234677
:101C1C009DF8082000950C3A14211E2089E7284ACB
:101C2C0014210020FFF720FA9DF80820092A03D977
:101C3C001023009302237AE708251421234600225F
:101C4C0008460095FFF738FA009501239DF8082007
:101C5C00E2E7092AECD808241421012300220846C3
:101C6C000094FFF729FA0094EFE708252346002299
:101C7C00142132200095FFF71FFA234614213C2033
:101C8C009DF80920009568E70825234600221421B9
:101C9C0050200095FFF710FA234614215A209DF886
:101CAC000A2000956DE702462821002075E700BF49
:101CBC00684300204C3F0020543F0020C94B0008D3
:101CCC00CC4B000810B5FEF7F9FE884B5A78013A58
:101CDC000B2A00F20A81DFE812F00C002C00440001
:101CEC005C0074008C00A400B600C800D400EC00AA
:101CFC00FE009A78052A0DD801230C2214210846DF
:101D0C00FFF74AF901231922BDE8104014212820BD
:101D1C00FFF742B99B78142B02D801231222EDE76E
:101D2C001421012300220846FFF736F9012306226D
:101D3C00EAE79A78042AF3D99B78122B08D8142155
:101D4C00012302220846FFF727F901230322DBE7D0
:101D5C001421012304220846FFF71EF90123052252
:101D6C00D2E79A78062AF3D99B78152B08D8012349
:101D7C00062214210846FFF70FF901230722C3E7B7
:101D8C001421012308220846FFF706F90123092232
:101D9C00BAE79A78042AF3D99B78132B08D8142124
:101DAC0001230A220846FFF7F7F801230222ABE7CA
:101DBC001421012300220846FFF7EEF8012310221C
:101DCC00A2E79A78052AF3D99B78142B08D814210A
:101DDC0001230C220846FFF7DFF801230D2293E7BD
:101DEC00142101230E220846FFF7D6F801230F22F7
:101DFC008AE79A78052AF3D99B78152B08D8012302
:101E0C00102214210846FFF7C7F8012311227BE7A3
:101E1C0001230C2214210846FFF7BEF801231322DC
:101E2C0072E79A78062AF3D99B78162B02D80123ED
:101E3C001222EFE71421012300220846FFF7ACF829
:101E4C000123182260E79A78072AF3D99B78162B7E
:101E5C0002D801231522DDE701231622142108469E
:101E6C00FFF79AF8012317224EE79A78072AF3D93D
:101E7C009B78162B02D8012318227AE7012319220A
:101E8C00ECE79A78072AF9D99B78172B08D81421F4
:101E9C0001231A220846FFF77FF801231B2233E7A0
:101EAC001421012300220846FFF776F801231E2295
:101EBC002AE79A78072AF3D99B78162B08D801239E
:101ECC000C2214210846FFF767F801231D221BE79B
:101EDC0001231222F5E79A78062AF9D99B78152B5B
:101EEC003FF60AAF01231E228BE710BDC83E00202F
:101EFC001FB5084A01AB10685168128903C301A9C8
:101F0C001A8005484FF6FF730A2202F0AEFB05B0AB
:101F1C005DF804FB404B0008AC44002010B586B0C3
:101F2C006C4602461D4B022AD3F80A00D3F80E1059
:101F3C0003C4D3F81200D3F8161003C4D3F81A0054
:101F4C00D3F81E1003C415D0032A21D0012A0FD1B7
:101F5C00134B69461A68012AD2BF0A221A6802F189
:101F6C00FF321A604FF6FF7308220E4802F07DFB19
:101F7C0006B010BD0A4B1A68092ACEBF01221A6896
:101F8C0001321A6008224FF6FF730DEB0201ECE7E9
:101F9C004FF6FF73082204A9E7E700BF404B000887
:101FAC00C43E0020AC44002013B50124012344227C
:101FBC0000210820FEF7F0FF0021114B114A00947C
:101FCC001820FFF751F82346452200213820FEF750
:101FDC00E3FF2346462200214820FEF7DDFF23467F
:101FEC00212200215820FEF7D7FF23462222002170
:101FFC006620FEF7D1FF02B0BDE81040FEF740BFEF
:10200C004C3F0020DC4B000837B500210124012394
:10201C0045220846FEF7C0FF01234622002110206E
:10202C00FEF7BAFF0123212200212020FEF7B4FF86
:10203C001E4D0123222200213020FEF7ADFF01238B
:10204C00262200214020FEF7A7FF2B460021184A2C
:10205C0000945020FFF708F8234644221421002056
:10206C00FEF79AFF2B461421124A00941020FEF71B
:10207C00FBFF23463E2214213020FEF78DFF234622
:10208C003F2214214020FEF787FF234645221421CE
:10209C005020FEF781FF2346462214216020FEF7D4
:1020AC007BFF03B0BDE83040FEF7EABE4C3F00209A
:1020BC00CF4B0008DC4B000810B586B06C460246CE
:1020CC00144B022AD3F80A00D3F80E1003C4D3F829
:1020DC001200D3F8161003C4D3F81A00D3F81E104C
:1020EC0003C40CD0032A10D0012A06D14FF6FF737B
:1020FC0008226946084802F0B8FA06B010BD08225A
:10210C004FF6FF730DEB0201F4E74FF6FF73082255
:10211C0004A9EFE7404B0008AC44002037B501247C
:10212C000021134D08462B46124A0094FEF79CFFE3
:10213C002346212200211820FEF72EFF23462222BF
:10214C0000212820FEF728FF2B4600210A4A009484
:10215C003820FEF789FF2B461421084A00940020F2
:10216C00FEF782FF03B0BDE83040FEF789BE00BF2A
:10217C004C3F0020D34B0008CF4B0008D74B000836
:10218C0000B595B06A463B4BD3F82200D3F8261025
:10219C0003C2D3F82A00D3F82E1003C2D3F83200AE
:1021AC00D3F8361003C2D3F83A00D3F83E1003C26A
:1021BC00D3F84200D3F8461003C2D3F84A00D3F840
:1021CC004E1003C2D3F85200D3F8561003C2D3F802
:1021DC005A00D3F85E1003C2D3F86200D3F866102D
:1021EC0003C2D3F86A00D3F86E10234B03C21B68EA
:1021FC00013B092B0DD8DFE803F0050F151A1F243E
:10220C00292E33384FF6FF73082269461B4802F01B
:10221C002CFA15B05DF804FB08224FF6FF730DEB9A
:10222C000201F3E74FF6FF73082204A9EEE74FF61D
:10223C00FF73082206A9E9E74FF6FF73082208A9E5
:10224C00E4E74FF6FF7308220AA9DFE74FF6FF73A6
:10225C0008220CA9DAE74FF6FF7308220EA9D5E77E
:10226C004FF6FF73082210A9D0E74FF6FF73082230
:10227C0012A9CBE7404B0008C43E0020AC44002020
:10228C0007B501220B4B1A606B460B4AD2F82200A1
:10229C00D2F82610082203C34FF6FF73694607488D
:1022AC0002F0E3F9642000F08FFDFFF721FE03B08C
:1022BC005DF804FBC43E0020404B0008AC440020F9
:1022CC0038B5FEF733FA0546FEF720FC0446FEF758
:1022DC0023FCFEF7EFFDFFF7D3FF042D01D00B2CF1
:1022EC0011D1FEF723FA0546FEF710FC0446FEF763
:1022FC0013FCFEF7DFFD042D01D0162C0ED1BDE82A
:10230C003840FFF7F5BDFFF74FFEFEF70FFA054615
:10231C00FEF7FCFB0446FEF7FFFBDEE7FFF774FE5F
:10232C006B1E022B02D8E8B2FFF7F8FDA4F11303E1
:10233C00DBB2022B04D8A4F11200C0B2FFF7EEFD01
:10234C00FEF7F4F90546FEF7E1FB0446FEF7E4FB65
:10235C00D1E738B5FEF7EAF90546FEF7D7FB044698
:10236C00FEF7DAFBFFF78CFF042D01D0162C03D1FE
:10237C00BDE83840FFF7BCBDFFF7D0FE6B1E022B4B
:10238C0002D8E8B2FFF798FEA4F11303DBB2022BDC
:10239C0004D8A4F11200C0B2FFF78EFEFEF7C6F906
:1023AC000546FEF7B3FB0446FEF7B6FBDCE7000080
:1023BC000A4B82B09A6942F001029A619A6902F062
:1023CC0001020092009ADA6942F08052DA61DB690C
:1023DC0003F080530193019B02B070470010024040
:1023EC00FEE7FEE7FEE7FEE7FEE770477047704743
:1023FC0000F0D8BC054B05481B681A68920642BF12
:10240C005A68D2B25A6002F0DDB900BF1C440020F9
:10241C00014802F0D7B900BF6444002070470000A7
:10242C007FB51022002102A802F06CFB0023144897
:10243C00144ACDE90033C0E900234FF6FF728360E4
:10244C00C0E90323836101F043FF08B1FEF7B8FA3A
:10245C004FF480530A4802A9029301F06FFF08B1B0
:10246C00FEF7AEFA002369460548CDE9003302F0C9
:10247C0001F808B1FEF7A4FA07B05DF804FB00BF41
:10248C007C430020000400400268084B82B09A4252
:10249C000AD103F50333DA6942F00202DA61DB692F
:1024AC0003F002030193019B02B07047000400404B
:1024BC004FF4E13310B50C4A0C4CC4E90023002353
:1024CC000C222046C4E90233C4E905232361E361ED
:1024DC0002F09CF808B1FEF773FA2268D36843F057
:1024EC002003D36010BD00BF003801401C44002005
:1024FC0008B54FF416530C480C4AC0E900230023CE
:10250C000C22C0E90233C0E905230361C36102F068
:10251C007DF808B1FEF754FABDE8084001220449E1
:10252C00014802F0BABA00BF6444002000440040E5
:10253C001944002008B54FF416530A480A4AC0E95A
:10254C00002300230C22C0E90233C0E905230361F8
:10255C00C36102F05BF818B1BDE80840FEF730BA71
:10256C0008BD00BFAC4400200048004010B5044634
:10257C008AB01022002106A802F0C4FA2368484A47
:10258C00934231D1474B4FF400749A69464842F458
:10259C0080429A619A6906A902F480420092009ADC
:1025AC009A6942F004029A619B6903F00403019357
:1025BC00019B0223CDE9064303230024099300F079
:1025CC00E5FC4FF48063384806A9CDE9063408943D
:1025DC0000F0DCFC25202246214600F019FC2520C9
:1025EC0000F048FC0AB010BD304A93422CD12D4B60
:1025FC000420DA6906A942F40032DA61DA690024AF
:10260C0002F400320292029A9A6942F004029A6130
:10261C009B6903F004030393039B0223CDE9060398
:10262C0003232148099300F0B1FC08231E4806A996
:10263C00CDE90634089400F0A9FC26202246214658
:10264C0000F0E6FB2620CBE7194A9342CAD1154B82
:10265C0006A9DA69174842F48022DA61DA6902F4D1
:10266C0080220492049A9A6942F008029A619B694A
:10267C004FF4806203F008030593059B0223CDE918
:10268C0006230323099300F081FC00234FF400611F
:10269C000848CDE9061306A9089300F077FCA1E7DA
:1026AC000038014000100240000801400044004086
:1026BC0000480040000C0140312803D101220C4B92
:1026CC001A707047322806D0332807D0342808D027
:1026DC00352809D070470222054BF1E70322044B41
:1026EC00EEE70422024BEBE70522014BE8E700BFC3
:1026FC00593F002000EB80001039034B01EB4001E7
:10270C00C9B21970704700BFC23E002000EB8000B8
:10271C001039034B01EB4001C9B21970704700BF6F
:10272C00C13E002030282FD1312930D101221F4B3E
:10273C001A70382908D108221C4B0AE002221B4BC4
:10274C00F6E70322194B1A7039290AD07047042274
:10275C00164B1A7070470522144BFAE70622134BDE
:10276C00F7E70922114BF4E7302908D10A220F4B65
:10277C00EFE70B220D4BECE70C220C4BE9E7312970
:10278C00F7D03229F8D070473128EDD07047322974
:10279C00D4D03329D5D03429D9D03529DBD036291A
:1027AC00DCD03729C5D10722004BD2E7563F002099
:1027BC0038B500EB8005A1F1100410461946FFF75F
:1027CC00B1FF064B04EB45041B78E4B2A34214BFE3
:1027DC0000220122024B1A7038BD00BF563F002068
:1027EC00573F0020302840F08C80312940F09080F9
:1027FC000122524B1A70382908D108224F4B0AE09B
:10280C0002224E4BF6E703224C4B1A7039290AD0A0
:10281C0070470422494B1A7070470522474BFAE760
:10282C000622464BF7E70922444BF4E7302959D1ED
:10283C000A22424B1A70372908D111223F4BEAE782
:10284C000B223E4BF6E70C223C4B1A7038290BD06E
:10285C0039290CD070470D22384BDCE70E22374B50
:10286C00D9E70F22354BD6E71222344BD3E713228C
:10287C00324BD0E7302926D11422304B1A7037292D
:10288C0008D11B222D4BC6E715222C4BF6E716223E
:10289C002A4B1A7038290BD039290CD070471722C3
:1028AC00264BB8E71822254BB5E71922234BB2E784
:1028BC001C22224BAFE71D22204BACE7302926D13E
:1028CC001E221E4BA7E73129DED03229DFD0332957
:1028DC00E5D03429E6D03529E7D03629CFD11A22D4
:1028EC00164B98E73129ABD03229ACD03329B2D072
:1028FC003429B3D03529B4D036299CD110220F4BB2
:10290C0089E7312892D03228B4D03328D6D07047FA
:10291C0032293FF475AF33293FF475AF34293FF4B6
:10292C0078AF35293FF479AF36293FF479AF3729A1
:10293C007FF461AF0722014B6DE700BF553F0020CC
:10294C002DE9F341044601220221B84800F0FEFBB8
:10295C002268B74B9A4240F03481B64EB64A33786F
:10296C001178B64DB64AB74FB74CD154E954F95417
:10297C00E1540133DBB23370134413F8011C6129A9
:10298C0026D113F8023C612B22D11378312B40F065
:10299C009A815378302B40F08A810022AB4B1A700D
:1029AC004FF0000815224146A54886F8008002F039
:1029BC00A9F815224146A14802F0A4F81522414677
:1029CC00A04802F09FF8152241469F4802F09AF861
:1029DC0033783B4413F8012C622A24D113F8023CBF
:1029EC00622B20D13878FFF767FEB9787878FFF73B
:1029FC0081FE3979F8780027FFF788FE15223946D1
:102A0C008F48377002F07EF8152239468B4802F059
:102A1C0079F8152239468B4802F074F8152239469C
:102A2C00894802F06FF833782B4413F8012C632A91
:102A3C002ED113F8023C632B2AD1EB78AA78697853
:102A4C002878FFF7B5FEE978A878FFF76BFE69796F
:102A5C0028790025FFF7C6FE4FF47A7306227749D2
:102A6C007B4801F002FE152229467548357002F0AC
:102A7C0049F815222946714802F044F815222946D6
:102A8C00704802F03FF8152229466F4802F03AF8D8
:102A9C003378234413F8012C642A40F0928013F805
:102AAC00023C642B40F08D80E378A278103B02EB63
:102ABC008202684D03EB4203DBB22B706279A3797F
:102ACC0002EB8202103B03EB4203DBB26B70227A07
:102ADC00637A02EB8202103B03EB4203DBB2AB7076
:102AEC00E27A237B02EB8202103B03EB4203DBB264
:102AFC00EB70A27BE37B02EB8202103B03EB420305
:102B0C00DBB2627C2B71A37C002402EB8202103BB3
:102B1C0003EB4203DBB213224B496B714C484FF46D
:102B2C007A7301F0A2FDEB7822468DF800302B79F8
:102B3C0069468DF801306B7947488DF802306B7817
:102B4C008DF804408DF80530AB788DF806302B7875
:102B5C008DF8073001F08FF9224601A93E4801F0AB
:102B6C0097FA224669463C4801F0D4F9224601A95D
:102B7C00394801F0E5FA22466946374801F07BF9FD
:102B8C00224601A9344801F083FA4FF47A731322D8
:102B9C002D492F4801F069FD152221462848347033
:102BAC0001F0B0FF15222146244801F0ABFF15229D
:102BBC002146244801F0A6FF15222146224801F0A7
:102BCC00A1FF01221C49254802B0BDE8F04101F0EB
:102BDC0064BF01221D4BE2E602221C4BDFE60322FE
:102BEC001A4BDCE65378302B55D10522174BD6E621
:102BFC000622164BD3E60722144BD0E60822134BC1
:102C0C00CDE65378302B7FF4CBAE0A220F4BC6E6C1
:102C1C005378302B7FF4C4AE0B220C4BBFE65378A9
:102C2C00302B32D11022094BB9E600BF000C014009
:102C3C00004400401844002019440020D9430020CF
:102C4C00C443002003440020EE430020C03E00207B
:102C5C001C440020C83E002068430020644400202F
:102C6C001322214B9BE614221F4B98E615221E4B78
:102C7C0095E6312BF4D0322BF5D0332BF6D0342B08
:102C8C007FF48EAE1622184B89E6312B7FF488AE7A
:102C9C001122154B83E6312BAAD0322BABD0332B20
:102CAC00ACD0342B7FF47CAE09220F4B77E6312B62
:102CBC008FD0322B90D0332B91D0342B7FF470AE3D
:102CCC000422094B6BE6322B8CD0332B99D0342B4E
:102CDC009ED0352BA3D0362B7FF462AE5378302B9D
:102CEC00C7D11222004B5AE6C03E0020FFF796FBDC
:102CFC000B480C490C4A002302E0D458C45004334E
:102D0C00C4188C42F9D3094A094C002301E0136022
:102D1C000432A242FBD301F0D1FEFDF7C9FD70478E
:102D2C0000000020DC3E0020284C0008DC3E002087
:102D3C00F8440020FEE7000038B50E4B0546187825
:102D4C004FF47A73B3FBF0F30B4A1068B0FBF3F05B
:102D5C0000F09EF8044658B90F2D09D802462946B2
:102D6C004FF0FF3000F054F82046044B1D6038BD86
:102D7C000120FCE7D43E0020D03E0020D83E0020AD
:102D8C00074A08B51368032043F01003136000F0E2
:102D9C002DF80F20FFF7D0FFFFF70AFB002008BD2E
:102DAC0000200240034A044B11681B780B4413604B
:102DBC00704700BFF4440020D43E0020014B18683B
:102DCC00704700BFF444002038B50446FFF7F6FF07
:102DDC000546631C1EBF044B1B78E418FFF7EEFF7F
:102DEC00431BA342FAD338BDD43E0020074903024B
:102DFC00CA6803F4E06322F4E0621204120C134379
:102E0C0043F0BF6343F40033CB60704700ED00E048
:102E1C00164B30B5DC68C4F30224C4F10703251D3E
:102E2C00042B28BF0423062D4FF0FF3598BF002438
:102E3C0005FA03F388BF033C21EA0303A34005FA18
:102E4C0004F422EA0402002843EA0203ACBF00F1B6
:102E5C006040074A4FEA0313DBB2ABBF00F5614099
:102E6C0000F00F0080F80033135430BD00ED00E08B
:102E7C0014ED00E0002808DB0123420900F01F00DC
:102E8C0003FA00F0014B43F82200704700E100E028
:102E9C000138B0F1807F0BD24FF0E023F021054ACE
:102EAC00586182F823100020072298611A6170473C
:102EBC000120704700ED00E090F82130022B06D085
:102ECC0004238363002380F82030012070470368BB
:102EDC00C16B1A6822F00E021A601A6822F0010205
:102EEC001A600122036C02FA03F34B60002380F892
:102EFC00212080F8203018467047000010B590F85B
:102F0C002130022B03D004238363012010BD0368FE
:102F1C001A6822F00E021A601A6822F001021A6076
:102F2C00184A93421FD0143293421ED0143293424B
:102F3C001DD0143293421DD0143293421DD0143242
:102F4C0093420CBF4FF480134FF080730E4A002451
:102F5C005360012380F82130436B80F820407BB113
:102F6C0098472046D2E70123F0E71023EEE74FF411
:102F7C008073EBE74FF48053E8E74FF48033E5E7D9
:102F8C001846C3E708000240000002402DE9F74F45
:102F9C0000221646644F654BDFF894C1DFF894E1CC
:102FAC000D6835FA06F402D103B0BDE8F08F4FF08E
:102FBC00010808FA06F805EA080438EA05057BD189
:102FCC004D68032D07D8013D022D00F28880DFE803
:102FDC0005F0969BA100122D00F099806ED8112D52
:102FEC0000F08F80FF2C98BF82464FF00F0988BFEE
:102FFC0000F1040A4FEA8605DAF8008088BF203D0C
:10300C0009FA05FB28EA0B0802FA05F548EA05055A
:10301C00CAF80050D1F804A01AF0805F4CD0BD69FA
:10302C0026F0030845F00105BD61BD6908F1804833
:10303C0005F00105019508F5803806F0030B019D9C
:10304C004FEA8B0BD8F8085009FA0BF925EA090955
:10305C00394DA84262D005F58065A84260D005F5CF
:10306C008065A8425ED005F58065A8420CBF03259B
:10307C00042505FA0BF545EA0905C8F808509D68C2
:10308C001AF4801F14BF2543A5439D60DD681AF414
:10309C00001F14BF2543A543DD605D681AF4003F93
:1030AC0014BF2543A5435D601D681AF4803F14BF0F
:1030BC002C4325EA04041C60013671E7DFF87C9090
:1030CC004D450CD017D8A9F580194D4507D009F5F9
:1030DC0070294D4503D0A9F580194D4582D18A68D8
:1030EC00D2B1012A08BFC0F810804FF0080218BFF7
:1030FC00C0F8148076E76545F1D07545EEE7CA68EF
:10310C0070E7CA6804326DE7CA6808326AE7CA68B1
:10311C000C3267E7002265E7042263E70025A8E785
:10312C000125A6E70225A4E7001002400004014097
:10313C000000311000003210000801400000221085
:10314C008368194214BF0120002070470AB1016145
:10315C0070470904FBE7016800224B6913F4806394
:10316C0010D06FF480634B612023026380F83D30F4
:10317C0080F83E20036C80F83C2043F00403036489
:10318C0001207047184670472DE9F84606460F4651
:10319C0091461D464FEA114A3368BAF1010F0CBF34
:1031AC005C699C6927EA0404A4B2B4FA84F4640947
:1031BC00A14501D0002025E06A1CEED0FFF7FEFDF2
:1031CC00089BC01AA84201D8002DE5D13368BAF18A
:1031DC00010F0CBF5B699B6927EA03039BB2B3FA2F
:1031EC0083F35B099945D7D1002320220120336357
:1031FC0086F83D2086F83E30326C86F83C3042F042
:10320C0020023264BDE8F8862DE9F04104460F46F1
:10321C00164698462568686927EA000080B2B8B15E
:10322C006B695A0516D52B68202243F400732B606A
:10323C006FF480636B610023236384F83D2084F872
:10324C003E30226C42F004020120226484F83C30AF
:10325C00BDE8F081731CDED0FFF7B0FDA0EB0800D9
:10326C00B04201D8002ED5D123685A6927EA020250
:10327C0092B2002ACED000232022236384F83D2072
:10328C0084F83E30226C42F02002DDE770B5044633
:10329C000D46164623685B691B0601D5002070BDE0
:1032AC002046FFF758FFC8B96A1CF3D0FFF786FD1C
:1032BC00801BA84201D8002DECD123685B6913F068
:1032CC008003E7D12022236384F83D2084F83E302C
:1032DC00226C84F83C3042F0200222640120DEE7AC
:1032EC002DE9F043154602689946136885B043F4FE
:1032FC0080731360DDE90C780E463B4600224FF0DC
:10330C000111CDF800800446FFF73EFF236838B169
:10331C001B68DB0502D54FF40073236403200AE01D
:10332C0006F0FE061E613A46434620461749FFF753
:10333C006BFF18B1012005B0BDE8F0832368039042
:10334C005A69394603929B69424603932046039B74
:10335C00FFF79CFF40B1236C042B01BF226813685C
:10336C0043F400731360E5E7B9F1010F236802D150
:10337C00EDB21D61DFE72A0A1A6139464246204642
:10338C00FFF784FF0028E6D12368F1E70200010073
:10339C0070B504460D46164623685B695B0701D57C
:1033AC00002070BD2046FFF7D6FEC8B96A1CF3D0CA
:1033BC00FFF704FD801BA84201D8002DECD1236837
:1033CC005B6913F00403E7D12022236384F83D20CA
:1033DC0084F83E30226C84F83C3042F020022264A7
:1033EC000120DEE770B5044608B9012070BD90F8E5
:1033FC003D3003F0FF021BB980F83C20FDF764F967
:10340C00242384F83D3023681A6822F001021A60E4
:10341C001A6842F400421A601A6822F400421A60D8
:10342C0000F07CFB3F4A6368934294BF3E4A3F4A9C
:10343C0090428CBF00220122002AD6D1394E3C4941
:10344C00B342B0FBF1F188BF4FF49676226800F1DD
:10345C00FF30556825F03F0545EA010582BF7143F1
:10346C004FF47A76B1FBF6F15560156A013125F00F
:10347C003F0529431162D1692A4D21F44F41AB42DA
:10348C0021F0FF0132D85B00B0FBF3F0431C40F697
:10349C00FC70034242D0C3F30B030B43D36111689E
:1034AC00D4E9073021F0C00103430B43136091684A
:1034BC00D4E9030321F40341034321F0FF010B433F
:1034CC009360D168D4E9053021F0FF0103430B432D
:1034DC00D3601368002043F00103136020232064A1
:1034EC0084F83D30206384F83E007FE7A56855B929
:1034FC0003EB4303B0FBF3F30133C3F30B037BB1D7
:10350C0043F40043C9E719256B43B0FBF3F30133D4
:10351C00C3F30B0323B143F44043BEE70423BCE7DE
:10352C000123BAE7A08601007F841E00FF083D003E
:10353C0040420F002DE9F743044699460F4690464A
:10354C000C9EFFF73BFC94F83D300546202B03D036
:10355C00022003B0BDE8F08300901923012220461D
:10356C003A49FFF711FE0028F2D194F83C30012BB8
:10357C00EED00123206884F83C3003684246D9071A
:10358C0058BF036839465CBF43F00103036003680E
:10359C0023F400630360212384F83D30402384F836
:1035AC003E30002323640A9B20466362BDF82C3016
:1035BC00CDE900656385638D2385254BE3624B461E
:1035CC00FFF78EFE00282AD00120C2E7FFF75EFE2F
:1035DC0040B1236C042B01BF2268136843F40073C1
:1035EC001360F1E7636A27681A4612F8011B396108
:1035FC006262628D218D013A92B262857A69481EAF
:10360C0080B2520720850AD548B15A7802333A6104
:10361C006362638D0239013B9BB221856385238DE7
:10362C002A4631462046002BD0D1FFF7B1FE0028A8
:10363C00CFD12268136843F400731360202384F8FD
:10364C003C0084F83D3084F83E0082E70200100014
:10365C000000FFFF0122014B1A62704700000E426E
:10366C002DE9F341054638B30368DB0710D42B680A
:10367C009F075ED42B68190700F195802B685A07B9
:10368C0000F1C180E869002840F02C81002029E07D
:10369C00904C636803F00C03042B07D0636803F0B1
:1036AC000C03082B0AD16368DE0307D523689C033F
:1036BC00DDD56B68002BDAD1012013E06B68B3F514
:1036CC00803F12D1236843F480332360FFF776FBED
:1036DC00064623689803CAD4FFF770FB801B642846
:1036EC00F7D9032002B0BDE8F0819BB9236823F41D
:1036FC0080332360236823F480232360FFF75EFB71
:10370C00064623689903B2D5FFF758FB801B642843
:10371C00F7D9E6E7B3F5A02F236803D143F4802350
:10372C002360CFE723F480332360236823F48023C2
:10373C00CBE7684C636813F00C0F07D0636803F099
:10374C000C03082B10D16368DA030DD423689B0794
:10375C0002D52B69012BAFD123686A6923F0F803DA
:10376C0043EAC203236085E72A695B4B6AB10122F5
:10377C001A60FFF723FB064623689F07ECD4FFF77C
:10378C001DFB801B0228F7D9ABE71A60FFF716FB6D
:10379C000646236898077FF56DAFFFF70FFB801B7C
:1037AC000228F6D99DE7AA694A4E4B4BE2B1012299
:1037BC00C3F88024FFF702FB0446736A9B070DD500
:1037CC004FF4FA52454B1B68B3FBF2F3019300BF65
:1037DC00019B5A1E0192002BF9D14FE7FFF7EEFA2D
:1037EC00001B0228E9D97CE7C3F88024FFF7E6FA2E
:1037FC000446736A9F077FF541AFFFF7DFFA001BA2
:10380C000228F6D96DE7334CE369D80024D401279C
:10381C00E36943F08053E361E36903F08053009361
:10382C00009B2F4E3368D90518D5EB68012B26D198
:10383C00236A43F001032362FFF7C0FA41F2883890
:10384C000646236A9B073FD5002F3FF41BAFE36965
:10385C0023F08053E36115E70027E2E7336843F474
:10386C0080733360FFF7AAFA80463368DA05DCD43C
:10387C00FFF7A4FAA0EB08006428F6D931E7ABB93E
:10388C00236A41F2883823F001032362236A23F070
:10389C0004032362FFF792FA0646236A9807D3D5EE
:1038AC00FFF78CFA801B4045F7D91AE7052B236AE2
:1038BC0003D143F004032362BAE723F0010323622C
:1038CC00236A23F00403B6E7FFF778FA801B404520
:1038DC00B7D906E70010024000004242D03E00205B
:1038EC00007000402A4C636803F00C03082B3ED098
:1038FC000022284B02281A662CD1FFF75FFA0646E5
:10390C002368990120D42B6AB3F5803F05D16268F6
:10391C00A96822F400320A436260696A62680B4348
:10392C0022F474121343012263601A4B1A66FFF7D8
:10393C0045FA054623689A013FF5A8AEFFF73EFA13
:10394C00401B0228F6D9CCE6FFF738FA801B022878
:10395C00D6D9C6E6FFF732FA054623689B017FF5F8
:10396C0095AEFFF72BFA401B0228F6D9B9E60128D1
:10397C003FF4B8AE63682A6A03F4803191427FF455
:10398C009BAE6A6A03F4701393423FF47FAE93E6E6
:10399C0000100240000042420D4A536803F00C0133
:1039AC00082912D10B48C3F38341DB03405C09D5D2
:1039BC005368094AC3F340435043084AD35CB0FBF5
:1039CC00F3F07047064B584370470348704700BFED
:1039DC0000100240F94B000800127A00094C000854
:1039EC0000093D002DE9F0410D46044610B90120B7
:1039FC00BDE8F081444A136803F007038B4228D3D7
:103A0C0021688E0730D4CA0743D43F4A136803F0A9
:103A1C000703AB4265D822683C4D12F0040F6CD101
:103A2C00130706D56B68226923F4605343EAC2037B
:103A3C006B60FFF7B1FF6B68354AC3F30313D35CBC
:103A4C00D840344B1860344B1868FFF775F90020D8
:103A5C00CEE7136823F007030B431360136803F0DE
:103A6C0007038B42C3D1CBE7284B11F0040F1EBFC9
:103A7C005A6842F4E0625A60080742BF5A6842F43E
:103A8C0060525A605A68A06822F0F00202435A60F1
:103A9C00B9E762681D4E012A33681AD113F4003F4E
:103AAC00A5D0736841F2883823F003031343736085
:103ABC00FFF784F907467368626803F00C03B3EBF5
:103ACC00820FA2D0FFF77AF9C01B4045F3D903202F
:103ADC008EE7022A02D113F0007FE1E713F0020F08
:103AEC00DEE7136823F007032B431360136803F01E
:103AFC000703AB427FF47BAF8DE76B68E16823F47F
:103B0C00E0630B436B608BE7002002400010024027
:103B1C00E14B0008D03E0020D83E0020044B054A63
:103B2C005B68C3F30223D35C034A1068D840704728
:103B3C0000100240F14B0008D03E0020044B054A17
:103B4C005B68C3F3C223D35C034A1068D840704748
:103B5C0000100240F14B0008D03E002003682DE914
:103B6C00F341D907054620D5364CE369DA0032D447
:103B7C000126E36943F08053E361E36903F080536A
:103B8C000193019B304F3B68DB0526D5236A13F468
:103B9C00407336D1236A6A6823F44073134323625B
:103BAC001EB1E36923F08053E3612868830706D5CF
:103BBC002449AB684A6822F440421A434A6010F028
:103BCC0010001BD01F4AE9685368002023F48003BF
:103BDC000B43536012E00026D4E73B6843F4807338
:103BEC003B60FFF7EBF880463B68D805CED4FFF777
:103BFC00E5F8A0EB08006428F6D9032002B0BDE874
:103C0C00F0816A6802F440729A42C3D001200F4AD4
:103C1C00236AC2F84004002023F44071C2F8400427
:103C2C002162D907B6D5FFF7C9F841F288380746A3
:103C3C00236A9A07AED4FFF7C1F8C01B4045F7D9E9
:103C4C00DBE700BF00100240007000400000424261
:103C5C00022808B544D0102803D0012822D0002017
:103C6C0034E0254B5A68186810F080702ED0C2F3DF
:103C7C0083412248D20348BF5A68405C41BF204967
:103C8C00C2F34042895C1F4A5B684CBFB2FBF1F245
:103C9C001D4A5B0202FB00F018D403234000B0FB6A
:103CAC00F3F013E040F20231134A136A1940B1F5F4
:103CBC00817F1ED003F44073B3F5007F07D149F622
:103CCC004043506A10F0020018BF184608BDB3F507
:103CDC00407FC4D110684FF2244310F40030F3E756
:103CEC00FFF72CFF044B5B68C3F3813301335B009C
:103CFC00D5E74FF40040E9E7001002400B4C0008F8
:103D0C001B4C000800127A0000093D00036830B516
:103D1C009A69D869996995B28CB2A54217BFD869CE
:103D2C0080B280B240EA014008BF40EA024030BD98
:103D3C000368186A5B6A9BB243EA00407047002331
:103D4C00092803D840EA0310C0B270470A3801337F
:103D5C00C0B2F5E70A22030900F00F0002FB0300D2
:103D6C00C0B2704730B5034600F5FA641720092538
:103D7C0048430229B0FBF5F517D8043210194FF45B
:103D8C00C87203F2CF73B3FBF2F2284400EB93003A
:103D9C0010446422B3FBF2F3C01A0723B0FBF3F315
:103DAC00C3EBC303C01AC0B230BD4FF4C873B4FB2D
:103DBC00F3F3901C2044284400EB94001844642333
:103DCC00B4FBF3F4001BE8E738B50446FEF7F6FF46
:103DDC00054623685A68920605D500205A6842F0B9
:103DEC0010025A6038BDFEF7E9FF401BB0F57A7F30
:103DFC00EFD90320F6E7026838B55368044623F080
:103E0C0010035360FEF7DAFF054623685B689B06D8
:103E1C0001D5002038BDFEF7D1FF401BB0F57A7FED
:103E2C00F3D90320F6E738B505460C46FFF7CCFF6F
:103E3C0058B92B68220CA4B29A612846DC61FFF7B2
:103E4C00DAFF003818BF012038BD0120FCE738B577
:103E5C0005460C46FFF7B8FF58B92B68220CA4B2E4
:103E6C001A6228465C62FFF7C6FF003818BF0120B3
:103E7C0038BD0120FCE7F8B50446E0B1D9B1037CAC
:103E8C000225012B44D001234574037408784D7826
:103E9C008F7892B93C2675434FF4616606FB00554A
:103EAC00EE1931462046FFF7BEFF0546B0B104239C
:103EBC0063740023237401252AE0FFF74BFF0146AE
:103ECC002846FFF747FF3C2646434FF4616000FB52
:103EDC0001663846FFF73EFF0644E2E722682046BB
:103EEC00536823F005035360FFF722FF86420BD97A
:103EFC0000F5A83101F5C0712046FFF7A8FF18B1F5
:103F0C00042325746374D6E701236374002323749C
:103F1C002846F8BD2DE9F0470E461746054610B960
:103F2C000120BDE8F0870029FAD003685B6813F024
:103F3C000408F5D1FFF7EAFE4FF46163B0FBF3F22E
:103F4C00044603FB12033C20B3FBF0F100FB1133DE
:103F5C00B3704D4B71709C4240F28B801823B2FBB6
:103F6C00F3F903FB192228463270FFF7E1FEB0F19A
:103F7C00FF3F824605D084422CBF4FF0FF3AA0EBA6
:103F8C00040A4249284601FB19442146FFF74BFF1E
:103F9C000028C5D1BAF1FF3F27D004EB0A0128460F
:103FAC00FFF755FF0028BBD164224FF4C87140F2D3
:103FBC00D52CE87B6C7BAB7BC14518D1E1B2DAB276
:103FCC00E8736973AA73FFF7CDFE28735FB130787D
:103FDC00FFF7B5FE30707078FFF7B1FE7070B078F7
:103FEC00FFF7ADFEB07000209BE75146D7E704F118
:103FFC00FF3EBEF1090F0ED90C2C3CD024F0020E62
:10400C00BEF1040F02D0BEF1090F0BD11D2B0DD93F
:10401C000123013434E02CFA0EFE1EF0010FEDD01A
:10402C001E2BF4E7022C2BD11B2B01D8013327E0DC
:10403C001C2B17D110F0030F83B215D1B3FBF2FE7A
:10404C0002FB1E3E1FFA8EFEBEF1000F0FD1B3FB1A
:10405C00F1FE01FB1E339BB2002B16BF01231D2367
:10406C0003240DE01D2B0BD10123032408E01D2399
:10407C0006E03270AAE71E2BD8D901231C4601306A
:10408C0008F1010898E700BF7F5101008051010041
:10409C0070B50D46044650B349B3037C0220012B86
:1040AC0048D0012360742374C87812BBE0734B783A
:1040BC0063738B78A373A27B617BE07BFFF752FE6B
:1040CC00207328702046FFF721FE1B4B98422DD9F8
:1040DC001A4DB0FBF5F105FB110520462946FFF7FB
:1040EC00A2FE064688B104236374002323740120C6
:1040FC0020E0FFF72FFEE0734878FFF72BFE60738C
:10410C008878FFF727FEA073D5E72046FFF710FE4F
:10411C0085420BD900F5A83101F5C0712046FFF797
:10412C0096FE18B1042326746374E0E70123002083
:10413C006374207470BD00BF8F5F0100805101005B
:10414C00F7B5164600220C460546ADF804208DF84E
:10415C00062018B90121084603B0F0BD0029F9D09A
:10416C0001A9FFF7D7FE01460028F3D12B7B237062
:10417C00E87BE0706F7B6770AA7BA270002EEAD0A0
:10418C00FFF7DDFDE0703846FFF7D9FD6070104693
:10419C00FFF7D5FDA070DEE738B50446A8B102687C
:1041AC00536823F008035360FEF708FE05462368A6
:1041BC005B681B0701D5002038BDFEF7FFFD401BD7
:1041CC00B0F57A7FF3D90320F6E70120F4E700007D
:1041DC0010B5044670B1437C03F0FF0213B90274AE
:1041EC00FCF7ECFF022320466374FFF7D5FF18B1F0
:1041FC000423637401202FE02046FFF7E5FD00281F
:10420C00F6D12268A068536823F007035360134A61
:10421C0018B1116B21F001011163D36A23F460739F
:10422C000343D3626068431C05D10120FFF710FDE6
:10423C000028DDD001382368C0F3034280B29A60B5
:10424C00D8602046FFF7D7FD012310B10422627419
:10425C00D0E76373E381637410BD00BF006C004052
:10426C001A4A036890420AD0B0F1804F07D0A2F5E9
:10427C009432904203D002F58062904215D14A6884
:10428C0023F070031343114A90420AD0B0F1804FCF
:10429C0007D0A2F59432904203D002F5806290428E
:1042AC0003D1CA6823F4407313434A6923F0800393
:1042BC00134303608B68C3620B688362034B9842A1
:1042CC0004BF0B690363012343617047002C014059
:1042DC0010B5044630B390F83D3003F0FF021BB923
:1042EC0080F83C20FEF7D0F80223206884F83D309B
:1042FC00211DFFF7B5FF0123002084F8463084F818
:10430C003E3084F83F3084F8403084F8413084F8F3
:10431C00423084F8433084F8443084F8453084F8D3
:10432C003D3010BD0120FCE710B584680A4324F42D
:10433C007F4442EA03222243826010BD70B590F89C
:10434C003C300446012B4FF0020300F09180012217
:10435C0080F83D3080F83C200068836823F47F436C
:10436C0023F0770383600B68602B52D033D8402B3B
:10437C0067D016D8202B0DD00AD833F0100109D0F5
:10438C00012384F83D30002384F83C30104670BD86
:10439C00302BF5D1826822F07002134343F00703EF
:1043AC0017E0502BECD14A68CE68016A056A21F0FF
:1043BC000A0125F00105056283690A4323F0F00325
:1043CC0043EA061383610262836823F0700343F0AF
:1043DC005703836011E0B3F5805F0ED0B3F5005F37
:1043EC000DD0702BCCD1CB68D1E90121FFF79CFF0C
:1043FC002268936843F0770393600022C0E7CB6890
:10440C00D1E90121FFF790FF2268936843F48043C0
:10441C00F2E7036A4D68CE68016A23F0A00321F02D
:10442C0010010162826943EA051322F4704242EAE8
:10443C00063282610362836823F0700343F06703E2
:10444C00C7E74A68CE68016A056A21F00A0125F0BF
:10445C000105056283690A4323F0F00343EA06135E
:10446C0083610262836823F0700343F04703B0E773
:10447C001A468BE730B590F83C300246012B4FF0D2
:10448C00020022D0136882F83D005C680D6824F0AD
:10449C0070042C4398685C600C4CA3420AD0B3F1B6
:1044AC00804F07D0A4F59434A34203D004F5806464
:1044BC00A34204D1496820F0800001439960012394
:1044CC00002082F83D3082F83C0030BD002C0140C9
:1044DC00026802F10C0353E8003F23F490730C3292
:1044EC0042E8003102680029F2D102F1140353E8CA
:1044FC00003F23F0010302F1140C4CE800310029B9
:10450C00F3D1036B012B0BD102F10C0353E8003FE9
:10451C0023F0100302F10C0C4CE800310029F3D10C
:10452C00202380F8423000230363704710B5044603
:10453C000368C1681A6922F440520A431A618268FE
:10454C000069D9680243606921F4B05121F00C0173
:10455C0002430A43DA605A69A16922F440720A43A1
:10456C005A610E4A934215D1FFF7E8FA19234343D7
:10457C00626820689200B3FBF2F36422B3FBF2F1A1
:10458C0002FB11331B013233B3FBF2F303EB0113C8
:10459C00836010BDFFF7C2FAE8E700BF00380140A6
:1045AC00F8B504460E4617461D462268136836EACF
:1045BC00030301D1002028E06B1CF7D025B1FEF7D6
:1045CC00FDFBC01B8542F0D2226802F10C0353E8BC
:1045DC00003F23F4D0730C3242E8003021680028ED
:1045EC00F2D101F1140353E8003F23F0010301F170
:1045FC00140040E80032002AF3D12023032084F871
:10460C00413084F8402084F84230F8BD10B504469F
:10461C0048B390F8413003F0FF021BB980F84020FA
:10462C00FDF7A4FF2423226884F84130D368204688
:10463C0023F40053D360FFF779FF236800201A6935
:10464C0022F490421A615A6922F02A025A61DA68FD
:10465C0042F40052DA602023606484F8413084F81C
:10466C004230606310BD0120FCE72DE9F843994608
:10467C0090F841300446202B0E4617463CD10029B9
:10468C003CD0002A3AD021230025456480F84130E3
:10469C00FEF794FBA3688046B3F5805FA784E7849C
:1046AC0003D123690BB935461E46E38C9BB253B933
:1046BC004B46424640212046FFF772FF50B920235B
:1046CC0084F8413007E04B46424680212046FFF7F4
:1046DC0067FF10B10320BDE8F88322684EB935F8A6
:1046EC00023BC3F308035360E18C013989B2E184C6
:1046FC00DBE716F8013BF6E70220ECE70120EAE7DE
:10470C007047704708B50023406AC385C384FFF720
:10471C00F8FF08BD704707B58168836AB1F5805F03
:10472C0002683FD1016900293FD15268C2F30802E7
:10473C0023F8022B8362C38D013B9BB2C385002BF4
:10474C002DD10268D16821F02001D160D16821F40B
:10475C008071D160516921F001015161202280F8F2
:10476C0042204363026B012A026828D1036302F1E1
:10477C000C0353E8003F23F0100302F10C0C4CE83F
:10478C0000310029F3D11368DB0605D501911368BC
:10479C00019353680193019B818DFFF7BBFF03B01D
:1047AC005DF804FB39B9016929B95268D2B21A70A3
:1047BC00836A0133BEE7526802F07F02F7E7FEF727
:1047CC00BFF8ECE7036837B51A68044612F00F0F10
:1047DC00D9685D690CD1950670D58D066ED590F8AB
:1047EC004230222B64D103B0BDE83040FFF793BFB9
:1047FC0005F0010001F4907505435FD0D50705D590
:10480C00CB0542BF636C43F001036364550704D5C9
:10481C0018B1636C43F002036364930704D518B1B9
:10482C00636C43F004036364150707D501F02003A0
:10483C0003431EBF636C43F008036364636C002B7B
:10484C0036D0900608D58A0606D594F84230222B2D
:10485C0002D12046FFF75FFF236820465B69656C39
:10486C0003F0400305F008051D4323D0FFF730FE8D
:10487C00226853695B0618D502F1140353E8003F14
:10488C0023F0400302F1140040E800310029F3D179
:10489C00E06B50B1734B4363FEF730FB40B1E06B00
:1048AC00436B03B0BDE8304018472046FFF729FFA3
:1048BC0003B030BDFFF725FF6564F9E7206B0128D5
:1048CC0040F09480D50640F19180C80640F18E806E
:1048DC00002201921A6801925A680192019A5A694F
:1048EC0055064DD5E16B0A68526892B2002ADFD0AA
:1048FC00A08D9042DCD9E2858A69202A36D003F15A
:10490C000C0252E8002F22F4807203F10C0040E8F4
:10491C0000210029F3D103F1140252E8002F22F0F8
:10492C00010203F1140040E800210029F3D103F146
:10493C00140252E8002F22F0400203F1140040E868
:10494C0000210029F3D1202284F84220216303F1B5
:10495C000C0252E8002F22F0100203F10C0040E888
:10496C0000210029F3D1E06BFEF7A6FA0223636362
:10497C00E38DA18DC91A89B22046FFF7CBFE97E7CC
:10498C00E18D8AB2E18D89B2002991D0A18D891A6D
:10499C0089B200298CD003F10C0252E8002F22F4CA
:1049AC00907203F10C0545E800200028F3D103F1C7
:1049BC00140252E8002F22F0010203F1140545E81D
:1049CC0000200028F3D1202284F84220206303F138
:1049DC000C0252E8002F22F0100203F10C0545E8FE
:1049EC0000200028F3D102236363C5E7100628D505
:1049FC000D0626D594F84120212A7FF459AFA168E1
:104A0C00226AB1F5805F17D12169A9B932F8021B6E
:104A1C00C1F3080159602262E28C013A92B2E2843D
:104A2C00002A7FF445AFDA6822F08002DA60DA6897
:104A3C0042F04002DA603BE7511C216212785A6066
:104A4C00EAE750067FF534AF4A067FF531AFDA68F6
:104A5C00204622F04002DA60202384F84130FFF730
:104A6C004FFE25E7114700080023C285436422232B
:104A7C008285026980F84230816203681AB1DA6873
:104A8C0042F48072DA605A69002042F001025A61E5
:104A9C00DA6842F02002DA60704770B490F8426035
:104AAC00202E06D141B13AB10024046370BCFFF74B
:104ABC00DBBF022070BC70470120FBE770B50026FD
:104ACC000C4D0D4C641BA410A64209D100F022F829
:104ADC0000260A4D0A4C641BA410A64205D170BDD9
:104AEC0055F8043B98470136EEE755F8043B9847D8
:104AFC000136F2E7204C0008204C0008204C00083E
:104B0C00244C000803460244934200D1704703F83A
:104B1C00011BF9E7F8B500BFF8BC08BC9E4670470E
:0C4B2C00F8B500BFF8BC08BC9E467047FE
:104B38007EFF0603000008EF7EFF0616000000FE59
:104B4800E5EF7EEF0602000000EF7EFF06010000A1
:104B580000EF7EFF0616000000EF7EFF0603000050
:104B680001EF7EFF0603000002EF7EFF0603000050
:104B780003EF7EFF0603000004EF7EFF060300003C
:104B880005EF7EFF0603000006EF7EFF0603000028
:104B980007EF7EFF0603000008EF7EFF0603000014
:104BA80009EF7EFF0603000010EF21212100414D8F
:104BB8002F504D3A004B4559313A004B4559323A3E
:104BC80000504D00414D002E2E2E004D5033004513
:104BD8005849543A4B455934000000000000000081
:104BE800000102030406070809000000000102038F
:104BF8000402030405060708090A0B0C0D0E0F1022
:104C080010010202030405060708090A0B0C0D0E21
:084C18000F1010010200000062
:044C20003101000856
:044C24000D01000876
:104C2800000000000000000000000000000000007C
:104C3800000000000000000000000000000000006C
:104C4800000000000000000000000000000000005C
:104C5800000000000000000000000000000000004C
:104C6800000000000000000000000000100000002C
:104C780010000000100000001000000010000000EC
:104C880010000000100000000000000000000000FC
:104C980018000000180000000000000000000000DC
:104CA8000000000012000000360000002400000090
:104CB80048000000000000000000000000000000A4
:104CC80000000000000000000000000000000000DC
:104CD80000000000000000000000000000000000CC
:104CE8000000000000000000000000002400000098
:104CF8002400000024000000FE000000480000001E
:104D08004800000048000000FE00000048000000C5
:104D180048000000480000000000000000000000FB
:104D28000000000000000000100000003800000033
:104D38005400000054000000500000003000000043
:104D480018000000140000001400000054000000C7
:104D5800540000003800000010000000100000009F
:104D680000000000000000000000000044000000F7
:104D7800A4000000A8000000A8000000A80000008F
:104D8800540000001A0000002A0000002A00000059
:104D98002A0000004400000000000000000000009D
:104DA80000000000000000000000000030000000CB
:104DB80048000000480000004800000050000000C3
:104DC8006E000000A40000009400000088000000AD
:104DD80089000000760000000000000000000000CC
:104DE80000000000600000006000000020000000DB
:104DF800C0000000000000000000000000000000EB
:104E0800000000000000000000000000000000009A
:104E1800000000000000000000000000000000008A
:104E2800000000000200000004000000080000006C
:104E38000800000010000000100000001000000032
:104E48001000000010000000100000000800000022
:104E5800080000000400000002000000000000003C
:104E680000000000400000002000000010000000CA
:104E78001000000008000000080000000800000002
:104E880008000000080000000800000010000000F2
:104E9800100000002000000040000000000000009A
:104EA80000000000000000000000000000000000FA
:104EB8001000000010000000D600000038000000BC
:104EC80038000000D60000001000000010000000AC
:104ED80000000000000000000000000000000000CA
:104EE80000000000000000000000000000000000BA
:104EF800100000001000000010000000100000006A
:104F0800FE0000001000000010000000100000006B
:104F18001000000000000000000000000000000079
:104F28000000000000000000000000000000000079
:104F38000000000000000000000000000000000069
:104F48000000000000000000000000000000000059
:104F5800600000006000000020000000C0000000A9
:104F68000000000000000000000000000000000039
:104F78000000000000000000000000000000000029
:104F88007F0000000000000000000000000000009A
:104F98000000000000000000000000000000000009
:104FA80000000000000000000000000000000000F9
:104FB80000000000000000000000000000000000E9
:104FC80000000000000000000000000000000000D9
:104FD8006000000060000000000000000000000009
:104FE80000000000000000000100000002000000B6
:104FF8000200000004000000040000000800000097
:105008000800000010000000100000002000000050
:1050180020000000400000004000000000000000E8
:105028000000000000000000000000001800000060
:10503800240000004200000042000000420000007E
:105048004200000042000000420000004200000050
:10505800240000001800000000000000000000000C
:105068000000000000000000000000001000000028
:105078007000000010000000100000001000000088
:1050880010000000100000001000000010000000D8
:10509800100000007C00000000000000000000007C
:1050A8000000000000000000000000003C000000BC
:1050B800420000004200000042000000040000001E
:1050C800040000000800000010000000200000009C
:1050D800420000007E000000000000000000000008
:1050E8000000000000000000000000003C0000007C
:1050F8004200000042000000040000001800000008
:10510800040000000200000002000000420000004D
:10511800440000003800000000000000000000000B
:105128000000000000000000000000000400000073
:105138000C000000140000002400000024000000FF
:1051480044000000440000007E000000040000004D
:10515800040000001E000000000000000000000025
:105168000000000000000000000000007E000000B9
:10517800400000004000000040000000580000000F
:10518800640000000200000002000000420000006D
:10519800440000003800000000000000000000008B
:1051A8000000000000000000000000001C000000DB
:1051B80024000000400000004000000058000000EB
:1051C80064000000420000004200000042000000AD
:1051D800240000001800000000000000000000008B
:1051E8000000000000000000000000007E00000039
:1051F800440000004400000008000000080000000F
:105208001000000010000000100000001000000056
:105218001000000010000000000000000000000066
:105228000000000000000000000000003C0000003A
:10523800420000004200000042000000240000007C
:105248001800000024000000420000004200000096
:10525800420000003C0000000000000000000000C8
:10526800000000000000000000000000180000001E
:10527800240000004200000042000000420000003C
:10528800260000001A0000000200000002000000D2
:1052980024000000380000000000000000000000AA
:1052A80000000000000000000000000000000000F6
:1052B80000000000000000001800000018000000B6
:1052C80000000000000000000000000000000000D6
:1052D8001800000018000000000000000000000096
:1052E80000000000000000000000000000000000B6
:1052F8000000000000000000000000001000000096
:105308000000000000000000000000000000000095
:105318000000000010000000100000002000000045
:105328000000000000000000000000000200000073
:105338000400000008000000100000002000000029
:1053480040000000200000001000000008000000DD
:10535800040000000200000000000000000000003F
:105368000000000000000000000000000000000035
:105378000000000000000000FE0000000000000027
:105388000000000000000000FE0000000000000017
:105398000000000000000000000000000000000005
:1053A80000000000000000000000000040000000B5
:1053B80020000000100000000800000004000000A9
:1053C80002000000040000000800000010000000B7
:1053D8002000000040000000000000000000000065
:1053E8000000000000000000000000003C00000079
:1053F80042000000420000006200000002000000BD
:105408000400000008000000080000000000000080
:105418001800000018000000000000000000000054
:10542800000000000000000000000000380000003C
:10543800440000005A000000AA000000AA00000072
:10544800AA000000AA000000B4000000420000000A
:1054580044000000380000000000000000000000C8
:105468000000000000000000000000001000000024
:1054780010000000180000002800000028000000AC
:10548800240000003C00000044000000420000002E
:1054980042000000E70000000000000000000000DB
:1054A800000000000000000000000000F8000000FC
:1054B80044000000440000004400000078000000A0
:1054C80044000000420000004200000042000000CA
:1054D80044000000F8000000000000000000000088
:1054E8000000000000000000000000003E00000076
:1054F8004200000042000000800000008000000020
:1055080080000000800000008000000042000000D1
:105518004400000038000000000000000000000007
:10552800000000000000000000000000F80000007B
:105538004400000042000000420000004200000059
:10554800420000004200000042000000420000004B
:1055580044000000F8000000000000000000000007
:10556800000000000000000000000000FC00000037
:1055780042000000480000004800000078000000D9
:105588004800000048000000400000004200000001
:1055980042000000FC0000000000000000000000C5
:1055A800000000000000000000000000FC000000F7
:1055B8004200000048000000480000007800000099
:1055C80048000000480000004000000040000000C3
:1055D80040000000E00000000000000000000000A3
:1055E8000000000000000000000000003C00000077
:1055F800440000004400000080000000800000001B
:10560800800000008E0000008400000044000000BC
:105618004400000038000000000000000000000006
:10562800000000000000000000000000E70000008B
:10563800420000004200000042000000420000005A
:105648007E0000004200000042000000420000000E
:1056580042000000E7000000000000000000000019
:105668000000000000000000000000007C000000B6
:1056780010000000100000001000000010000000E2
:1056880010000000100000001000000010000000D2
:10569800100000007C000000000000000000000076
:1056A8000000000000000000000000003E000000B4
:1056B80008000000080000000800000008000000C2
:1056C80008000000080000000800000008000000B2
:1056D800080000000800000088000000F00000003A
:1056E800000000000000000000000000EE000000C4
:1056F8004400000048000000500000007000000056
:10570800500000004800000048000000440000006D
:1057180044000000EE00000000000000000000004F
:10572800000000000000000000000000E000000091
:105738004000000040000000400000004000000061
:105748004000000040000000400000004000000051
:1057580042000000FE000000000000000000000001
:10576800000000000000000000000000EE00000043
:105778006C0000006C0000006C0000006C00000071
:1057880054000000540000005400000054000000C1
:1057980054000000D60000000000000000000000D7
:1057A800000000000000000000000000C70000002A
:1057B8006200000062000000520000005200000079
:1057C8004A0000004A0000004A00000046000000AD
:1057D80046000000E2000000000000000000000099
:1057E8000000000000000000000000003800000079
:1057F80044000000820000008200000082000000D7
:105808008200000082000000820000008200000088
:105818004400000038000000000000000000000004
:10582800000000000000000000000000FC00000074
:105838004200000042000000420000004200000058
:105848007C00000040000000400000004000000014
:1058580040000000E0000000000000000000000020
:1058680000000000000000000000000038000000F8
:105878004400000082000000820000008200000056
:105888008200000082000000B2000000CA00000090
:105898004C00000038000000060000000000000076
:1058A800000000000000000000000000FC000000F4
:1058B8004200000042000000420000007C0000009E
:1058C80048000000480000004400000044000000B8
:1058D80042000000E300000000000000000000009B
:1058E8000000000000000000000000003E00000072
:1058F80042000000420000004000000020000000BC
:10590800180000000400000002000000420000002F
:10591800420000007C0000000000000000000000C1
:10592800000000000000000000000000FE00000071
:10593800920000001000000010000000100000009D
:10594800100000001000000010000000100000000F
:1059580010000000380000000000000000000000F7
:10596800000000000000000000000000E700000048
:105978004200000042000000420000004200000017
:105988004200000042000000420000004200000007
:10599800420000003C000000000000000000000081
:1059A800000000000000000000000000E700000008
:1059B80042000000420000004400000024000000F3
:1059C8002400000028000000280000001800000043
:1059D800100000001000000000000000000000009F
:1059E800000000000000000000000000D6000000D9
:1059F8009200000092000000920000009200000057
:105A0800AA000000AA0000006C000000440000008A
:105A180044000000440000000000000000000000F6
:105A2800000000000000000000000000E700000087
:105A380042000000240000002400000018000000BC
:105A480018000000180000002400000024000000D6
:105A580042000000E7000000000000000000000015
:105A6800000000000000000000000000EE00000040
:105A78004400000044000000280000002800000046
:105A880010000000100000001000000010000000CE
:105A980010000000380000000000000000000000B6
:105AA8000000000000000000000000007E00000070
:105AB8008400000004000000080000000800000046
:105AC800100000002000000020000000420000003C
