:020000040800F2
:100000000050002049090008410500084305000888
:1000100045050008470500084905000800000000E4
:100020000000000000000000000000004B05000878
:100030004D050008000000004F05000851050008AC
:100040009109000891090008910900089109000828
:100050009109000891090008910900089109000818
:100060009109000891090008910900089109000808
:1000700091090008910900089109000891090008F8
:1000800091090008910900089109000891090008E8
:1000900091090008910900089109000891090008D8
:1000A00091090008910900089109000891090008C8
:1000B00091090008910900089109000891090008B8
:1000C00091090008910900089109000891090008A8
:1000D000910900085505000861050008910900080C
:1000E000910900089109000891090008000000002A
:1000F0000000000000000000000000000000000000
:0C01000000000000000000005FF808F1A3
:10010C0010B5054C237833B9044B13B10448AFF345
:10011C0000800123237010BD70000020000000003F
:10012C003031000808B5034B1BB103490348AFF34A
:10013C00008008BD00000000740000203031000871
:10014C001022F0B589B00DEB0200002102F04DF841
:10015C00284B294D9A69284642F010029A619A69F7
:10016C00022102F010020092009A9A69002442F0D7
:10017C0020029A619A69012602F020020192019AEA
:10018C009A691E4F42F004029A619A6902F00402C5
:10019C000292029A9A6942F008029A619B690022C3
:1001AC0003F008030393039B00F0F8FDE0233846AB
:1001BC0004A9CDE90434069600F010FD212328464D
:1001CC0004A9CDE90434069600F008FD0223284664
:1001DC0004A9CDE90436CDE9064300F0FFFC4FF449
:1001EC008073384604A9CDE90434069400F0F6FC7B
:1001FC0009B0F0BD00100240000C014000080140A5
:10020C0008B50B480B4A0C4BC0E9002300234FF4F4
:10021C008042C0E90233C0E90423C0E9063303621B
:10022C0000F0C2FD18B1BDE8084000F011B908BDDE
:10023C008C00002000540040A086010010B504463C
:10024C0086B01022002102A801F0CFFF2268114BCA
:10025C009A421CD1104CC022A369104843F00803E9
:10026C00A361A36902A903F008030093009B122366
:10027C00CDE902230323059300F0B0FCE36943F4BA
:10028C000013E361E36903F400130193019B06B0CF
:10029C0010BD00BF0054004000100240000C014093
:1002AC0010B520212D4800F073FD88B9142000F002
:1002BC00B3FB2021294800F06BFD00284BD1274CC3
:1002CC002021204600F064FD0028F9D0012010BD4B
:1002DC004021224800F05CFD88B9142000F09CFB02
:1002EC0040211E4800F054FD002834D11B4C402105
:1002FC00204600F04DFD0028F9D00220E7E78021D0
:10030C00164800F045FD80B9142000F085FB8021D3
:10031C00124800F03DFDF0B9104C8021204600F051
:10032C0037FD0028F9D00320D1E701210C4800F05B
:10033C002FFD80B9142000F06FFB0121084800F05C
:10034C0027FD40B9064C0121204600F021FD002874
:10035C00F9D00420BBE70020B9E700BF000801403A
:10036C00000C014010B5094C00220221204600F07F
:10037C0015FDFA2000F050FB20460122022100F06E
:10038C000DFDBDE81040FA2000F046BB000C01400A
:10039C0030B595B0142200210CA801F026FF1422D0
:1003AC0000210DEB020001F020FF1022002101A81A
:1003BC0001F01BFF02254FF4803305220124CDE907
:1003CC000A23CDE911534FF4E0130AA8CDE90D44EB
:1003DC00139300F097FD08B172B6FEE70F23CDE939
:1003EC0005354FF480630790CDE90830294605A800
:1003FC0000F04AFF08B172B6FEE74FF4807301A813
:10040C000194029300F0FCFF08B172B6FEE715B040
:10041C0030BD000008B500F0DBFAFFF7B9FFFFF7BD
:10042C008FFEFFF7EDFE00F015F800F0E3F800F09A
:10043C0029F900F047F900F061F9044800F06CFA72
:10044C00024C204600F068FAFBE700BF4831000878
:10045C0072B6FEE7002313B5ADF800308DF802300C
:10046C0001934FF0FF331648164AC0E900234FF4AE
:10047C008073836001F00AFA08B1FFF7E9FF0124E9
:10048C00694622460E488DF800408DF801408DF8E3
:10049C00024001F037F908B1FFF7DAFF01220848F2
:1004AC0001A98DF804408DF805408DF806408DF8B3
:1004BC00074001F077F908B1FFF7CAFF02B010BD91
:1004CC00E00000200028004007B50B4B02689A4260
:1004DC000FD100F011FD094BDA6942F00062DA61CC
:1004EC000122DB6903F000630193019B044BC3F809
:1004FC003C2403B05DF804FB0028004000100240CF
:10050C00000042420A4B82B09A6942F001029A61A1
:10051C009A6902F001020092009ADA6942F0805264
:10052C00DA61DB6903F080530193019B02B07047E1
:10053C0000100240FEE7FEE7FEE7FEE7FEE770472D
:10054C007047704700F056BA014801F099BC00BFE3
:10055C0044020020014801F093BC00BF8C02002033
:10056C0070B50D4614460E46731B9C4201DC2046AA
:10057C0070BDAFF3008006F8010BF5E770B50D46C2
:10058C0014460E46731B9C4201DC204670BD16F8C7
:10059C00010BAFF30080F5E74FF0FF3070474FF4DD
:1005AC00005300204B6070470120704700207047BB
:1005BC000B4A0346116810B509B90A491160106855
:1005CC0009490A4C0344091B8B4206D901F0D4FD9E
:1005DC000C2303604FF0FF3010BD1360FCE700BF2D
:1005EC00F400002030040020005000200004000023
:1005FC00704700007FB51022002102A801F0F5FD24
:10060C0000231448144ACDE90033C0E900234FF607
:10061C00FF728360C0E90323836101F0B7F908B16D
:10062C00FFF716FF4FF480530A4802A9029301F01A
:10063C00E3F908B1FFF70CFF002369460548CDE943
:10064C00003301F075FA08B1FFF702FF07B05DF84F
:10065C0004FB00BFF8000020000400400268084BB7
:10066C0082B09A420AD103F50333DA6942F00202EE
:10067C00DA61DB6903F002030193019B02B070475E
:10068C00000400404FF4E13310B50C4A0C4CC4E9A3
:10069C00002300230C222046C4E90233C4E90523BD
:1006AC002361E36101F010FB08B1FFF7D1FE226872
:1006BC00D36843F02003D36010BD00BF0038014065
:1006CC004402002008B54FF416530A480A4AC0E900
:1006DC00002300230C22C0E90233C0E90523036187
:1006EC00C36101F0F1FA18B1BDE80840FFF7B0BEE4
:1006FC0008BD00BF8C0200200044004008B54FF438
:10070C0016530A480A4AC0E9002300230C22C0E908
:10071C000233C0E905230361C36101F0D5FA18B1B6
:10072C00BDE80840FFF794BE08BD00BFD40200200E
:10073C000048004010B504468AB01022002106A8DB
:10074C0001F053FD2368484A934231D1474B4FF493
:10075C0000749A69464842F480429A619A6906A9E3
:10076C0002F480420092009A9A6942F004029A6163
:10077C009B6903F004030193019B0223CDE906431B
:10078C0003230024099300F029FA4FF480633848BE
:10079C0006A9CDE90634089400F020FA252022465B
:1007AC00214600F05DF9252000F08CF90AB010BD4F
:1007BC00304A93422CD12D4B0420DA6906A942F41D
:1007CC000032DA61DA69002402F400320292029AF1
:1007DC009A6942F004029A619B6903F00403039343
:1007EC00039B0223CDE9060303232148099300F060
:1007FC00F5F908231E4806A9CDE90634089400F043
:10080C00EDF926202246214600F02AF92620CBE7D6
:10081C00194A9342CAD1154B06A9DA69174842F412
:10082C008022DA61DA6902F480220492049A9A69CD
:10083C0042F008029A619B694FF4806203F008034E
:10084C000593059B0223CDE906230323099300F0AE
:10085C00C5F900234FF400610848CDE9061306A939
:10086C00089300F0BBF9A1E70038014000100240EA
:10087C00000801400044004000480040000C0140CA
:10088C0038B50446FFF70CFD1D4B9C4237D10128AF
:10089C0030D11C4D1C492A781C4C531C0978DBB2F6
:1008AC002B70A154234413F8012C792A15D113F879
:1008BC00023C612B11D14FF4807321461A46144827
:1008CC0001F084FC1249134801F098FC00214FF40C
:1008DC0080722046297001F088FCFFF743FDFFF77A
:1008EC00DFFC0328F9D1BDE8384001220649044851
:1008FC0001F031BCFFF736FDFFF7D2FCC7E738BD7E
:10090C008C02002040020020410200204001002007
:10091C001C0300209831000838B50446064D4FF4EE
:10092C007A7321460122284601F0FDF914F8013FA3
:10093C00002BF4D138BD00BF44020020FFF758FE55
:10094C000B480C490C4A002302E0D458C450043321
:10095C00C4188C42F9D3094A094C002301E01360F6
:10096C000432A242FBD301F00DFCFFF753FD70479C
:10097C000000002070000020603200087000002091
:10098C0030040020FEE7000038B50E4B0546187801
:10099C004FF47A73B3FBF0F30B4A1068B0FBF3F02F
:1009AC0000F09EF8044658B90F2D09D80246294686
:1009BC004FF0FF3000F054F82046044B1D6038BD5A
:1009CC000120FCE7040000200000002008000020AB
:1009DC00074A08B51368032043F01003136000F0B6
:1009EC002DF80F20FFF7D0FFFFF78CFD002008BD7E
:1009FC0000200240034A044B11681B780B4413601F
:100A0C00704700BF1C04002004000020014B186834
:100A1C00704700BF1C04002038B50446FFF7F6FFF2
:100A2C000546631C1EBF044B1B78E418FFF7EEFF52
:100A3C00431BA342FAD338BD04000020074903022C
:100A4C00CA6803F4E06322F4E0621204120C13434C
:100A5C0043F0BF6343F40033CB60704700ED00E01C
:100A6C00164B30B5DC68C4F30224C4F10703251D12
:100A7C00042B28BF0423062D4FF0FF3598BF00240C
:100A8C0005FA03F388BF033C21EA0303A34005FAEC
:100A9C0004F422EA0402002843EA0203ACBF00F18A
:100AAC006040074A4FEA0313DBB2ABBF00F561406D
:100ABC0000F00F0080F80033135430BD00ED00E05F
:100ACC0014ED00E0002808DB0123420900F01F00B0
:100ADC0003FA00F0014B43F82200704700E100E0FC
:100AEC000138B0F1807F0BD24FF0E023F021054AA2
:100AFC00586182F823100020072298611A61704710
:100B0C000120704700ED00E090F82130022B06D058
:100B1C0004238363002380F820300120704703688E
:100B2C00C16B1A6822F00E021A601A6822F00102D8
:100B3C001A600122036C02FA03F34B60002380F865
:100B4C00212080F8203018467047000010B590F82E
:100B5C002130022B03D004238363012010BD0368D2
:100B6C001A6822F00E021A601A6822F001021A604A
:100B7C00184A93421FD0143293421ED0143293421F
:100B8C001DD0143293421DD0143293421DD0143216
:100B9C0093420CBF4FF480134FF080730E4A002425
:100BAC005360012380F82130436B80F820407BB1E7
:100BBC0098472046D2E70123F0E71023EEE74FF4E5
:100BCC008073EBE74FF48053E8E74FF48033E5E7AD
:100BDC001846C3E708000240000002402DE9F74F19
:100BEC0000221646644F654BDFF894C1DFF894E1A0
:100BFC000D6835FA06F402D103B0BDE8F08F4FF062
:100C0C00010808FA06F805EA080438EA05057BD15C
:100C1C004D68032D07D8013D022D00F28880DFE8D6
:100C2C0005F0969BA100122D00F099806ED8112D25
:100C3C0000F08F80FF2C98BF82464FF00F0988BFC1
:100C4C0000F1040A4FEA8605DAF8008088BF203DDF
:100C5C0009FA05FB28EA0B0802FA05F548EA05052E
:100C6C00CAF80050D1F804A01AF0805F4CD0BD69CE
:100C7C0026F0030845F00105BD61BD6908F1804807
:100C8C0005F00105019508F5803806F0030B019D70
:100C9C004FEA8B0BD8F8085009FA0BF925EA090929
:100CAC00394DA84262D005F58065A84260D005F5A3
:100CBC008065A8425ED005F58065A8420CBF03256F
:100CCC00042505FA0BF545EA0905C8F808509D6896
:100CDC001AF4801F14BF2543A5439D60DD681AF4E8
:100CEC00001F14BF2543A543DD605D681AF4003F67
:100CFC0014BF2543A5435D601D681AF4803F14BFE3
:100D0C002C4325EA04041C60013671E7DFF87C9063
:100D1C004D450CD017D8A9F580194D4507D009F5CC
:100D2C0070294D4503D0A9F580194D4582D18A68AB
:100D3C00D2B1012A08BFC0F810804FF0080218BFCA
:100D4C00C0F8148076E76545F1D07545EEE7CA68C2
:100D5C0070E7CA6804326DE7CA6808326AE7CA6885
:100D6C000C3267E7002265E7042263E70025A8E759
:100D7C000125A6E70225A4E700100240000401406B
:100D8C000000311000003210000801400000221059
:100D9C008368194214BF0120002070470AB1016119
:100DAC0070470904FBE7000070B5044608B9012040
:100DBC0070BD90F83D3003F0FF021BB980F83C2069
:100DCC00FFF73CFA242384F83D3023681A6822F09C
:100DDC0001021A601A6842F400421A601A6822F47E
:100DEC0000421A6000F0ECFA3F4A6368934294BFE9
:100DFC003E4A3F4A90428CBF00220122002AD6D1A3
:100E0C00394E3C49B342B0FBF1F188BF4FF49676B2
:100E1C00226800F1FF30556825F03F0545EA0105D1
:100E2C0082BF71434FF47A76B1FBF6F15560156AC7
:100E3C00013125F03F0529431162D1692A4D21F476
:100E4C004F41AB4221F0FF0132D85B00B0FBF3F015
:100E5C00431C40F6FC70034242D0C3F30B030B431C
:100E6C00D3611168D4E9073021F0C00103430B436F
:100E7C0013609168D4E9030321F40341034321F087
:100E8C00FF010B439360D168D4E9053021F0FF01D9
:100E9C0003430B43D3601368002043F0010313603A
:100EAC002023206484F83D30206384F83E007FE7E3
:100EBC00A56855B903EB4303B0FBF3F30133C3F35C
:100ECC000B037BB143F40043C9E719256B43B0FB1B
:100EDC00F3F30133C3F30B0323B143F44043BEE7F5
:100EEC000423BCE70123BAE7A08601007F841E001F
:100EFC00FF083D0040420F000122014B1A6270476F
:100F0C0000000E422DE9F341054638B30368DB07B8
:100F1C0010D42B689F075ED42B68190700F19580BD
:100F2C002B685A0700F1C180E869002840F02C8139
:100F3C00002029E0904C636803F00C03042B07D0CD
:100F4C00636803F00C03082B0AD16368DE0307D532
:100F5C0023689C03DDD56B68002BDAD1012013E0EC
:100F6C006B68B3F5803F12D1236843F48033236060
:100F7C00FFF74CFD064623689803CAD4FFF746FDDD
:100F8C00801B6428F7D9032002B0BDE8F0819BB91F
:100F9C00236823F480332360236823F480232360A5
:100FAC00FFF734FD064623689903B2D5FFF72EFDF3
:100FBC00801B6428F7D9E6E7B3F5A02F236803D18B
:100FCC0043F480232360CFE723F48033236023682A
:100FDC0023F48023CBE7684C636813F00C0F07D025
:100FEC00636803F00C03082B10D16368DA030DD48B
:100FFC0023689B0702D52B69012BAFD123686A6943
:10100C0023F0F80343EAC203236085E72A695B4BAC
:10101C006AB101221A60FFF7F9FC064623689F07A4
:10102C00ECD4FFF7F3FC801B0228F7D9ABE71A606E
:10103C00FFF7ECFC0646236898077FF56DAFFFF7CA
:10104C00E5FC801B0228F6D99DE7AA694A4E4B4B5A
:10105C00E2B10122C3F88024FFF7D8FC0446736A7E
:10106C009B070DD54FF4FA52454B1B68B3FBF2F3BB
:10107C00019300BF019B5A1E0192002BF9D14FE73F
:10108C00FFF7C4FC001B0228E9D97CE7C3F88024D5
:10109C00FFF7BCFC0446736A9F077FF541AFFFF76F
:1010AC00B5FC001B0228F6D96DE7334CE369D80078
:1010BC0024D40127E36943F08053E361E36903F02F
:1010CC0080530093009B2F4E3368D90518D5EB68DD
:1010DC00012B26D1236A43F001032362FFF796FC10
:1010EC0041F288380646236A9B073FD5002F3FF410
:1010FC001BAFE36923F08053E36115E70027E2E7B8
:10110C00336843F480733360FFF780FC80463368A8
:10111C00DA05DCD4FFF77AFCA0EB08006428F6D9DA
:10112C0031E7ABB9236A41F2883823F0010323621B
:10113C00236A23F004032362FFF768FC0646236A44
:10114C009807D3D5FFF762FC801B4045F7D91AE707
:10115C00052B236A03D143F004032362BAE723F07F
:10116C0001032362236A23F00403B6E7FFF74EFC66
:10117C00801B4045B7D906E70010024000004242F0
:10118C0000000020007000402A4C636803F00C0340
:10119C00082B3ED00022284B02281A662CD1FFF7D0
:1011AC0035FC06462368990120D42B6AB3F5803FA1
:1011BC0005D16268A96822F400320A436260696A48
:1011CC0062680B4322F474121343012263601A4BBE
:1011DC001A66FFF71BFC054623689A013FF5A8AE7B
:1011EC00FFF714FC401B0228F6D9CCE6FFF70EFCE7
:1011FC00801B0228D6D9C6E6FFF708FC05462368F3
:10120C009B017FF595AEFFF701FC401B0228F6D938
:10121C00B9E601283FF4B8AE63682A6A03F480315A
:10122C0091427FF49BAE6A6A03F4701393423FF4CD
:10123C007FAE93E600100240000042420D4A536814
:10124C0003F00C01082912D10B48C3F38341DB03D3
:10125C00405C09D55368094AC3F340435043084ADC
:10126C00D35CB0FBF3F07047064B58437047034810
:10127C00704700BF001002409B31000800127A003A
:10128C00AB31000800093D002DE9F0410D46044644
:10129C0010B90120BDE8F081444A136803F007033C
:1012AC008B4228D321688E0730D4CA0743D43F4AD7
:1012BC00136803F00703AB4265D822683C4D12F06B
:1012CC00040F6CD1130706D56B68226923F46053A5
:1012DC0043EAC2036B60FFF7B1FF6B68354AC3F397
:1012EC000313D35CD840344B1860344B1868FFF7A9
:1012FC004BFB0020CEE7136823F007030B4313606E
:10130C00136803F007038B42C3D1CBE7284B11F0D2
:10131C00040F1EBF5A6842F4E0625A60080742BFCD
:10132C005A6842F460525A605A68A06822F0F0027F
:10133C0002435A60B9E762681D4E012A33681AD11C
:10134C0013F4003FA5D0736841F2883823F00303EF
:10135C0013437360FFF75AFB07467368626803F028
:10136C000C03B3EB820FA2D0FFF750FBC01B404520
:10137C00F3D903208EE7022A02D113F0007FE1E7B4
:10138C0013F0020FDEE7136823F007032B431360FF
:10139C00136803F00703AB427FF47BAF8DE76B68F8
:1013AC00E16823F4E0630B436B608BE700200240A1
:1013BC0000100240803100080000002008000020CE
:1013CC00044B054A5B68C3F30223D35C034A1068E1
:1013DC00D8407047001002409031000800000020F7
:1013EC00044B054A5B68C3F3C223D35C034A106801
:1013FC00D8407047001002409031000800000020D7
:10140C0003682DE9F341D907054620D5364CE3692D
:10141C00DA0032D40126E36943F08053E361E369D7
:10142C0003F080530193019B304F3B68DB0526D5BD
:10143C00236A13F4407336D1236A6A6823F4407329
:10144C00134323621EB1E36923F08053E3612868E0
:10145C00830706D52449AB684A6822F440421A43F4
:10146C004A6010F010001BD01F4AE9685368002036
:10147C0023F480030B43536012E00026D4E73B684F
:10148C0043F480733B60FFF7C1FA80463B68D80594
:10149C00CED4FFF7BBFAA0EB08006428F6D90320E2
:1014AC0002B0BDE8F0816A6802F440729A42C3D07F
:1014BC0001200F4A236AC2F84004002023F4407133
:1014CC00C2F840042162D907B6D5FFF79FFA41F262
:1014DC0088380746236A9A07AED4FFF797FAC01BE1
:1014EC004045F7D9DBE700BF001002400070004018
:1014FC0000004242022808B544D0102803D001282D
:10150C0022D0002034E0254B5A68186810F0807007
:10151C002ED0C2F383412248D20348BF5A68405CA4
:10152C0041BF2049C2F34042895C1F4A5B684CBFF3
:10153C00B2FBF1F21D4A5B0202FB00F018D403234C
:10154C004000B0FBF3F013E040F20231134A136A8F
:10155C001940B1F5817F1ED003F44073B3F5007FC1
:10156C0007D149F64043506A10F0020018BF1846E4
:10157C0008BDB3F5407FC4D110684FF2244310F47A
:10158C000030F3E7FFF72CFF044B5B68C3F38133A8
:10159C0001335B00D5E74FF40040E9E7001002404F
:1015AC00AD310008BD31000800127A0000093D0081
:1015BC00036830B59A69D869996995B28CB2A5421D
:1015CC0017BFD86980B280B240EA014008BF40EA38
:1015DC00024030BD0368186A5B6A9BB243EA004064
:1015EC0070470A22030900F00F0002FB0300C0B28F
:1015FC00704730B5034600F5FA64172009254843B7
:10160C000229B0FBF5F517D8043210194FF4C87243
:10161C0003F2CF73B3FBF2F2284400EB93001044B7
:10162C006422B3FBF2F3C01A0723B0FBF3F3C3EB52
:10163C00C303C01AC0B230BD4FF4C873B4FBF3F38C
:10164C00901C2044284400EB940018446423B4FB01
:10165C00F3F4001BE8E738B50446FFF7D7F9054665
:10166C0023685A68920605D500205A6842F0100289
:10167C005A6038BDFFF7CAF9401BB0F57A7FEFD935
:10168C000320F6E7026838B55368044623F01003CC
:10169C005360FFF7BBF9054623685B689B0601D5D1
:1016AC00002038BDFFF7B2F9401BB0F57A7FF3D9B3
:1016BC000320F6E738B505460C46FFF7CCFF58B9C2
:1016CC002B68220CA4B29A612846DC61FFF7DAFF82
:1016DC00003818BF012038BD0120FCE738B505469D
:1016EC000C46FFF7B8FF58B92B68220CA4B21A624B
:1016FC0028465C62FFF7C6FF003818BF012038BDD2
:10170C000120FCE7F8B50446E0B1D9B1037C022511
:10171C00012B44D001234574037408784D788F78DD
:10172C0092B93C2675434FF4616606FB0055EE19E1
:10173C0031462046FFF7BEFF0546B0B10423637463
:10174C000023237401252AE0FFF74BFF01462846AE
:10175C00FFF747FF3C2646434FF4616000FB0166F0
:10176C003846FFF73EFF0644E2E7226820465368FE
:10177C0023F005035360FFF72DFF86420BD900F5CC
:10178C00A83101F5C0712046FFF7A8FF18B104235A
:10179C0025746374D6E701236374002323742846ED
:1017AC00F8BD000070B50D46044650B349B3037C38
:1017BC000220012B48D0012360742374C87812BB1B
:1017CC00E0734B7863738B78A373A27B617BE07BB4
:1017DC00FFF70FFF207328702046FFF7E9FE1B4B25
:1017EC0098422DD91A4DB0FBF5F105FB1105204699
:1017FC002946FFF75FFF064688B104236374002374
:10180C002374012020E0FFF7ECFEE0734878FFF72B
:10181C00E8FE60738878FFF7E4FEA073D5E72046F6
:10182C00FFF7D8FE85420BD900F5A83101F5C07140
:10183C002046FFF753FF18B1042326746374E0E7C6
:10184C00012300206374207470BD00BF8F5F010002
:10185C008051010038B50446A8B10268536823F0E2
:10186C0008035360FFF7D2F8054623685B681B0733
:10187C0001D5002038BDFFF7C9F8401BB0F57A7FC1
:10188C00F3D90320F6E70120F4E7000010B5044675
:10189C0070B1437C03F0FF0213B90274FEF714FE1F
:1018AC00022320466374FFF7D5FF18B10423637439
:1018BC0001202FE02046FFF7CEFE0028F6D122684B
:1018CC00A068536823F007035360134A18B1116BD7
:1018DC0021F001011163D36A23F460730343D362D3
:1018EC006068431C05D10120FFF704FE0028DDD001
:1018FC0001382368C0F3034280B29A60D860204656
:10190C00FFF7C0FE012310B104226274D0E76373A9
:10191C00E381637410BD00BF006C00401A4A036879
:10192C0090420AD0B0F1804F07D0A2F59432904289
:10193C0003D002F58062904215D14A6823F07003FF
:10194C001343114A90420AD0B0F1804F07D0A2F550
:10195C009432904203D002F58062904203D1CA685F
:10196C0023F4407313434A6923F080031343036049
:10197C008B68C3620B688362034B984204BF0B698C
:10198C000363012343617047002C014010B50446EA
:10199C0030B390F83D3003F0FF021BB980F83C20C7
:1019AC00FEF75CFE0223206884F83D30211DFFF712
:1019BC00B5FF0123002084F8463084F83E3084F8CB
:1019CC003F3084F8403084F8413084F8423084F859
:1019DC00433084F8443084F8453084F83D3010BDF1
:1019EC000120FCE710B584680A4324F47F4442EAE2
:1019FC0003222243826010BD70B590F83C3004463F
:101A0C00012B4FF0020300F09180012280F83D3051
:101A1C0080F83C200068836823F47F4323F077032D
:101A2C0083600B68602B52D033D8402B67D016D80C
:101A3C00202B0DD00AD833F0100109D0012384F8E3
:101A4C003D30002384F83C30104670BD302BF5D16E
:101A5C00826822F07002134343F0070317E0502B07
:101A6C00ECD14A68CE68016A056A21F00A0125F0BA
:101A7C000105056283690A4323F0F00343EA061368
:101A8C0083610262836823F0700343F05703836021
:101A9C0011E0B3F5805F0ED0B3F5005F0DD0702B65
:101AAC00CCD1CB68D1E90121FFF79CFF2268936868
:101ABC0043F0770393600022C0E7CB68D1E90121A2
:101ACC00FFF790FF2268936843F48043F2E7036AC0
:101ADC004D68CE68016A23F0A00321F01001016269
:101AEC00826943EA051322F4704242EA06328261AB
:101AFC000362836823F0700343F06703C7E74A6807
:101B0C00CE68016A056A21F00A0125F0010505621B
:101B1C0083690A4323F0F00343EA061383610262EC
:101B2C00836823F0700343F04703B0E71A468BE752
:101B3C0030B590F83C300246012B4FF0020022D019
:101B4C00136882F83D005C680D6824F070042C4327
:101B5C0098685C600C4CA3420AD0B3F1804F07D05C
:101B6C00A4F59434A34203D004F58064A34204D1B9
:101B7C00496820F08000014399600123002082F81D
:101B8C003D3082F83C0030BD002C0140026802F16F
:101B9C000C0353E8003F23F490730C3242E80031FD
:101BAC0002680029F2D102F1140353E8003F23F03C
:101BBC00010302F1140C4CE800310029F3D1036B42
:101BCC00012B0BD102F10C0353E8003F23F010035F
:101BDC0002F10C0C4CE800310029F3D1202380F8E1
:101BEC00423000230363704710B504460368C16894
:101BFC001A6922F440520A431A6182680069D96852
:101C0C000243606921F4B05121F00C0102430A43F4
:101C1C00DA605A69A16922F440720A435A610E4A89
:101C2C00934215D1FFF7DCFB19234343626820680C
:101C3C009200B3FBF2F36422B3FBF2F102FB11331B
:101C4C001B013233B3FBF2F303EB0113836010BDC2
:101C5C00FFF7B6FBE8E700BF00380140F8B50446D3
:101C6C000E4617461D462268136836EA030301D157
:101C7C00002028E06B1CF7D025B1FEF7C7FEC01B77
:101C8C008542F0D2226802F10C0353E8003F23F4A2
:101C9C00D0730C3242E8003021680028F2D101F1F7
:101CAC00140353E8003F23F0010301F1140040E852
:101CBC000032002AF3D12023032084F8413084F829
:101CCC00402084F84230F8BD10B5044648B390F873
:101CDC00413003F0FF021BB980F84020FEF72AFDCB
:101CEC002423226884F84130D368204623F400531F
:101CFC00D360FFF779FF236800201A6922F4904221
:101D0C001A615A6922F02A025A61DA6842F40052C6
:101D1C00DA602023606484F8413084F842306063D8
:101D2C0010BD0120FCE72DE9F843994690F84130AD
:101D3C000446202B0E4617463CD100293CD0002AE5
:101D4C003AD021230025456480F84130FEF75EFE31
:101D5C00A3688046B3F5805FA784E78403D1236929
:101D6C000BB935461E46E38C9BB253B94B464246E3
:101D7C0040212046FFF772FF50B9202384F84130F0
:101D8C0007E04B46424680212046FFF767FF10B123
:101D9C000320BDE8F88322684EB935F8023BC3F343
:101DAC0008035360E18C013989B2E184DBE716F852
:101DBC00013BF6E70220ECE70120EAE770477047A9
:101DCC0008B50023406AC385C384FFF7F8FF08BD3C
:101DDC00704707B58168836AB1F5805F02683FD1AF
:101DEC00016900293FD15268C2F3080223F8022B83
:101DFC008362C38D013B9BB2C385002B2DD102683E
:101E0C00D16821F02001D160D16821F48071D160BA
:101E1C00516921F001015161202280F84220436375
:101E2C00026B012A026828D1036302F10C0353E808
:101E3C00003F23F0100302F10C0C4CE80031002998
:101E4C00F3D11368DB0605D5019113680193536830
:101E5C000193019B818DFFF7BBFF03B05DF804FB81
:101E6C0039B9016929B95268D2B21A70836A01333F
:101E7C00BEE7526802F07F02F7E7FEF701FDECE7E0
:101E8C00036837B51A68044612F00F0FD9685D69FC
:101E9C000CD1950670D58D066ED590F84230222B5C
:101EAC0064D103B0BDE83040FFF793BF05F00100EB
:101EBC0001F4907505435FD0D50705D5CB0542BF1E
:101ECC00636C43F001036364550704D518B1636C6C
:101EDC0043F002036364930704D518B1636C43F0B9
:101EEC0004036364150707D501F0200303431EBFE9
:101EFC00636C43F008036364636C002B36D090066C
:101F0C0008D58A0606D594F84230222B02D12046F9
:101F1C00FFF75FFF236820465B69656C03F04003A5
:101F2C0005F008051D4323D0FFF730FE22685369E6
:101F3C005B0618D502F1140353E8003F23F040036D
:101F4C0002F1140040E800310029F3D1E06B50B1EC
:101F5C00734B4363FEF7FAFD40B1E06B436B03B088
:101F6C00BDE8304018472046FFF729FF03B030BDCD
:101F7C00FFF725FF6564F9E7206B012840F094809A
:101F8C00D50640F19180C80640F18E800022019266
:101F9C001A6801925A680192019A5A6955064DD5F0
:101FAC00E16B0A68526892B2002ADFD0A08D904291
:101FBC00DCD9E2858A69202A36D003F10C0252E87A
:101FCC00002F22F4807203F10C0040E8002100295C
:101FDC00F3D103F1140252E8002F22F0010203F1B5
:101FEC00140040E800210029F3D103F1140252E857
:101FFC00002F22F0400203F1140040E800210029D8
:10200C00F3D1202284F84220216303F10C0252E820
:10201C00002F22F0100203F10C0040E800210029EF
:10202C00F3D1E06BFEF770FD02236363E38DA18DAA
:10203C00C91A89B22046FFF7CBFE97E7E18D8AB229
:10204C00E18D89B2002991D0A18D891A89B200291C
:10205C008CD003F10C0252E8002F22F4907203F1A1
:10206C000C0545E800200028F3D103F1140252E8D6
:10207C00002F22F0010203F1140545E8002000288E
:10208C00F3D1202284F84220206303F10C0252E8A1
:10209C00002F22F0100203F10C0545E80020002867
:1020AC00F3D102236363C5E7100628D50D0626D5A8
:1020BC0094F84120212A7FF459AFA168226AB1F526
:1020CC00805F17D12169A9B932F8021BC1F308014D
:1020DC0059602262E28C013A92B2E284002A7FF4C7
:1020EC0045AFDA6822F08002DA60DA6842F040022A
:1020FC00DA603BE7511C216212785A60EAE750061D
:10210C007FF534AF4A067FF531AFDA68204622F00E
:10211C004002DA60202384F84130FFF74FFE25E7B8
:10212C00CD1D00080023C2854364222382850269E9
:10213C0080F84230816203681AB1DA6842F4807226
:10214C00DA605A69002042F001025A61DA6842F002
:10215C002002DA60704770B490F84260202E06D1ED
:10216C0041B13AB10024046370BCFFF7DBBF02201D
:10217C0070BC70470120FBE7014B1868704700BF2B
:10218C000C00002070B500260C4D0D4C641BA410E7
:10219C00A64209D100F0C6FF00260A4D0A4C641B6A
:1021AC00A410A64205D170BD55F8043B98470136E2
:1021BC00EEE755F8043B98470136F2E75832000831
:1021CC0058320008583200085C32000810B5D2B200
:1021DC0001390344984201D1002005E011F8014F68
:1021EC00944200F8014BF5D110BD034602449342D2
:1021FC0000D1704703F8011BF9E700000FB40A4B3C
:10220C0013B51C6824B1A36913B9204600F066F815
:10221C0005AB2046049AA168019300F0BBF902B00B
:10222C00BDE8104004B070470C000020002310B52E
:10223C000446C0E90033C0E90433836081814366FE
:10224C00C2818361194608225C30FFF7CEFF054B33
:10225C0024626362044BA362044BE362044B23636A
:10226C0010BD00BF4D2B00086F2B0008A72B0008DA
:10227C00CB2B0008014900F0AFB800BF9D2E000821
:10228C00682270B54D1E55430E4605F1740100F0E1
:10229C00E5F8044640B10021C0E900160C30A060FE
:1022AC0005F16802FFF7A1FF204670BD014800F060
:1022BC00B3B800BF21040020014800F0AEB800BF45
:1022CC0021040020014800F0A7B800BF2204002020
:1022DC00014800F0A2B800BF2204002010B504464B
:1022EC00FFF7F0FFA3691BB1BDE81040FFF7F0BF8B
:1022FC00C4E912332365134B134A1B68A262A34231
:10230C0008BF0123204608BFA36100F01FF86060DE
:10231C00204600F01BF8A060204600F017F80022C1
:10232C000421E0606068FFF781FF01220921A068A9
:10233C00FFF77CFF02221221E068FFF777FF0123F1
:10234C00A361D1E7C031000881220008F8B5074627
:10235C00FFF7ACFF1E4B1E68B36913B93046FFF78D
:10236C00BDFF4836D6E90134013B03D533680BB3C6
:10237C003668F7E7B4F90C50D5B9164B04F1580090
:10238C00E360656600F047F8FFF796FF08222946E0
:10239C00C4E90155C4E904552560A56104F15C004C
:1023AC00FFF723FFC4E90D55C4E912552046F8BDCB
:1023BC006834D9E704213846FFF762FF04463060E1
:1023CC000028D5D1FFF778FF0C233B60EEE700BF68
:1023DC00C03100080100FFFF2DE9F843064688468E
:1023EC00002700F14804D4E90195B9F1010905D59C
:1023FC002468002CF7D13846BDE8F883AB89012B53
:10240C0007D9B5F90E30013303D029463046C04701
:10241C0007436835E9E770477047704770B50E4E53
:10242C000C463168054611B900F07AFB3060214644
:10243C00284600F075FB431C0AD0C41C24F003048E
:10244C00A04207D0211A284600F06AFB013001D1C6
:10245C004FF0FF34204670BD280400202DE9F041D8
:10246C00CD1C25F0030508350C2D38BF0C25002D8F
:10247C00074601DBA94205D90C2300263B603046F8
:10248C00BDE8F0812E4E00F0C5FD33681C4634BB10
:10249C0029463846FFF7C2FF431C04464DD1346829
:1024AC002646002E40D123683146384604EB0308FB
:1024BC0000F036FB80453AD1216803356D1A25F0C2
:1024CC00030508350C2D38BF0C2538462946FFF777
:1024DC00A5FF01302BD023682B4423600EE022682B
:1024EC00521B1ED40B2A16D96119A342256018BFA2
:1024FC005960636808BF316062514B60384604F123
:10250C000B0600F08DFD26F00706231DF21AB6D03F
:10251C009B1BA350B3E76268A3420CBF32605A60A6
:10252C00ECE723466468B2E734467668B9E70C23D7
:10253C0038463B6000F074FDA1E72560DEE700BF84
:10254C0024040020936810B4013B002B936007DA3D
:10255C009469A34201DB0A2902D110BC00F034BB00
:10256C001368581C10601970084610BC7047F8B5F9
:10257C0006460F461446D518AC4201D1002007E0A0
:10258C003A46304614F8011BFFF7DCFF431CF3D12D
:10259C00F8BD00002DE9F04F0D461446984606464E
:1025AC009DB018B183690BB9FFF798FE894B9D421A
:1025BC001BD175686B6ED90705D4AB899A0502D40B
:1025CC00A86DFFF729FFAB891B0701D52B69EBB968
:1025DC002946304600F05CFBC0B16B6EDC070ED5B3
:1025EC004FF0FF301DB0BDE8F08F7B4B9D4201D109
:1025FC00B568DFE7794B9D4208BFF568DAE7AB8930
:10260C009805EDD4A86DFFF708FFE9E700230993BF
:10261C0020238DF8293030234FF00109CDF80C80A0
:10262C00DFF8BC818DF82A3023469A4613F8012B2B
:10263C000AB1252AF9D1BAEB040B0BD05B46224622
:10264C0029463046FFF793FF013000F0AA80099A23
:10265C005A4409929AF80030002B00F0A280002313
:10266C004FF0FF32CDE905230AF1010A04930793D9
:10267C008DF853301A935446052214F8011B584810
:10268C0000F0BAFC049AD8B9D10644BF20238DF8C7
:10269C005330130744BF2B238DF853309AF8003076
:1026AC002A2B15D0544600204FF00A0C079A2146CD
:1026BC0011F8013B303B092B4ED9B0B1079214E015
:1026CC00A0EB080309FA03F31343A2460493D2E7E1
:1026DC00039B191D1B680391002BBBBF5B4242F08F
:1026EC00020207930793B8BF049223782E2B0CD1C8
:1026FC0063782A2B35D1039B02341A1D1B68039275
:10270C00002BB8BF4FF0FF330593DFF8D8A003229E
:10271C005046217800F070FC40B14023A0EB0A0039
:10272C0003FA00F0049B01340343049314F8011BD7
:10273C0006222D488DF8281000F05EFC00283FD0B2
:10274C002A4B1BBB039B073323F00703083303936C
:10275C00099B3B44099367E70C4601200CFB0232B2
:10276C00A5E700234FF00A0C1946013405932046C7
:10277C0010F8012B303A092A03D9002BC5D005914A
:10278C00C3E7044601230CFB0121F0E703AB0093E4
:10279C002A463046164B04A9AFF300800746781C36
:1027AC00D6D16B6ED90705D4AB899A0502D4A86D26
:1027BC00FFF733FEAB895B063FF512AF099811E7C3
:1027CC0003AB00932A463046094B04A900F082F86B
:1027DC00E4E700BFE431000804320008C43100080B
:1027EC00243200082A3200082E32000800000000B3
:1027FC007B2500082DE9F047164699468A680B6937
:10280C0007469342B8BF1346336091F843200C46F9
:10281C00DDF820800AB1013333602368990642BF8A
:10282C00336802333360256815F0060506D104F1D0
:10283C00190AE36832689B1AAB4228DC94F84320EF
:10284C00131E226818BF012392062DD44946384620
:10285C0004F14302C047013020D02368E56803F03F
:10286C000603042B18BF002532684FF00006A3683E
:10287C0008BFAD1A226908BF25EAE5759342C4BFAB
:10288C009B1AED181A34B5421AD1002008E0012326
:10289C00524649463846C047013003D14FF0FF300D
:1028AC00BDE8F0870135C4E73020E11881F843001A
:1028BC005A1C94F845102244023382F84310C5E7A1
:1028CC000123224649463846C0470130E6D001363E
:1028DC00D9E700002DE9FF470F7E9146782F8046FF
:1028EC000C469A460C9D01F1430207D8622F0AD878
:1028FC00002F00F0D980582F00F0A48004F142057D
:10290C0084F842703AE0A7F16303152BF6D801A1C5
:10291C0051F823F0792900088D29000809290008AD
:10292C000929000809290008092900088D2900082F
:10293C0009290008092900080929000809290008A3
:10294C009B2A0008BD2900087D2A000809290008D7
:10295C0009290008BD2A000809290008BD2900081A
:10296C000929000809290008852A00082B681A1D66
:10297C001B682A6004F1420584F842300123A4E06C
:10298C0020682968060601F104030AD50E682B603D
:10299C00002E03DA2D23764284F843300A235E4856
:1029AC0019E00E6810F0400F2B6018BF36B2EFE73D
:1029BC002B682068191D2960010601D51E6802E0EC
:1029CC004606FBD51E886F2F0CBF08230A235248DE
:1029DC00002184F843106568002DA8BF2168A5600C
:1029EC00A4BF21F0040121600EB9002D4DD0154675
:1029FC00B6FBF3F103FB1167C75D05F8017D3746A4
:102A0C00BB420E46F4D9082B0BD12368DE0708D540
:102A1C00236961689942DEBF302305F8013C05F15A
:102A2C00FF35521B22614B4621464046CDF800A093
:102A3C0003AAFFF7DFFE01304CD14FF0FF3004B09A
:102A4C00BDE8F087344881F845702968236851F84F
:102A5C00046B29601D0614D5DF0744BF43F0200327
:102A6C0023601EB9236823F0200323601023AFE7F3
:102A7C00236843F0200323607823284884F84530EA
:102A8C00E3E7590648BFB6B2E6E71546BBE72B6845
:102A9C002668181D6169286035061B6801D5196008
:102AAC0002E07006FBD51980002315462361BAE7B6
:102ABC002B6800211A1D2A601D686268284600F0E8
:102ACC009BFA08B1401B606063682361002384F8A3
:102ADC004330A8E72A46494640462369D04701308F
:102AEC00ABD023689B0713D4E068039B9842B8BF14
:102AFC001846A4E70123324649464046D0470130E8
:102B0C009BD00135E36803995B1AAB42F2DCEBE72F
:102B1C00002504F11906F5E73532000846320008A5
:102B2C0038B50023054D044608462B60FDF740FDE3
:102B3C00431C02D12B6803B1236038BD2C04002048
:102B4C0010B50C46B1F90E1000F0B8FA0028ABBF66
:102B5C00636DA3891B1823F48053ACBF6365A381F9
:102B6C0010BD2DE9F0411F468B890546DB050C464F
:102B7C00164605D502230022B1F90E1000F0C4F957
:102B8C00A389324623F48053A38128463B46B4F9EB
:102B9C000E10BDE8F04100F069B810B50C46B1F963
:102BAC000E1000F0B1F9431CA38915BF606523F426
:102BBC00805343F48053A38118BFA38110BDB1F996
:102BCC000E1000F0D3B80000F8B50E4614460546BA
:102BDC0018B183690BB9FFF781FB214B9C422BD1B8
:102BEC006C68A369A360A3891A072FD523696BB3FB
:102BFC0023692068F6B2C01A63693746834204DC45
:102C0C002146284600F044F930BBA3680130013B53
:102C1C00A36023685A1C22601E706369834204D02F
:102C2C00A389DB0706D50A2E04D12146284600F0DD
:102C3C002FF988B93846F8BD0A4B9C4201D1AC68D3
:102C4C00CFE7094B9C4208BFEC68CAE721462846EF
:102C5C0000F01EF80028CBD04FF0FF37EAE700BF9A
:102C6C00E431000804320008C431000838B50446C9
:102C7C00084611460022054D2A601A46FDF77EFCD7
:102C8C00431C02D12B6803B1236038BD2C040020F7
:102C9C00324B70B51D6806460C4625B1AB6913B9AD
:102CAC002846FFF71BFB2E4B9C420FD16C68A38967
:102CBC00B4F90C2019072CD4DD0611D40923336088
:102CCC0042F040034FF0FF30A3813EE0254B9C4285
:102CDC0001D1AC68EBE7244B9C4208BFEC68E6E7FB
:102CEC00580712D5616B41B104F14403994202D0EB
:102CFC00304600F09BF900236363A38923F024037F
:102D0C00A3810023636023692360A38943F0080334
:102D1C00A38123694BB9A38903F42073B3F5007F16
:102D2C0003D02146304600F027F9A089B4F90C20D5
:102D3C0010F001030AD00023A36063695B42A36116
:102D4C00236943B910F08000BAD170BD810758BF18
:102D5C006369A360F4E70020F7E700BF0C000020D4
:102D6C00E431000804320008C431000838B50023EF
:102D7C00054D044608462B60FDF70EFC431C02D1A2
:102D8C002B6803B1236038BD2C0400208A89F8B568
:102D9C00054610070C4657D44B68002B04DC0B6C13
:102DAC00002B01DC0020F8BDE66A002EFAD00023CF
:102DBC0012F480522F682B6032D0606DA3895A07B1
:102DCC0005D56368C01A636B0BB1236CC01A002362
:102DDC000246E66A2846216AB047431CA38906D1FD
:102DEC0029681D292CD8294ACA40D60728D5002283
:102DFC0062602269D904226004D5421C01D12B687F
:102E0C0003B96065616B2F600029CBD004F14403DA
:102E1C00994202D0284600F009F900206063C2E70D
:102E2C00216A01232846B047411CC7D12B68002BCF
:102E3C00C4D01D2B01D0162B01D12F60B2E7A38972
:102E4C0043F04003A381AEE70F69002FAAD093078C
:102E5C0018BF00230E6808BF4B69F61B0F608B6010
:102E6C00002E9FDD33463A462846216AD4F828C006
:102E7C00E047002806DCA3894FF0FF3043F0400305
:102E8C00A38190E70744361AEAE700BF010040200F
:102E9C0038B50B6905460C4613B90025284638BDD4
:102EAC0018B183690BB9FFF719FA144B9C421BD16B
:102EBC006C68B4F90C30002BEFD0626ED00704D4E0
:102ECC00990502D4A06DFFF7A7FA28462146FFF713
:102EDC005DFF636E0546DA07E0D4A3899B05DDD45C
:102EEC00A06DFFF79AFAD9E7054B9C4201D1AC686B
:102EFC00DFE7044B9C4208BFEC68DAE7E4310008DA
:102F0C0004320008C431000838B50446084611469E
:102F1C000022054D2A601A46FDF748FB431C02D1DE
:102F2C002B6803B1236038BD2C04002070B50E460D
:102F3C00B1F90E10144600291D4696B008DA00228D
:102F4C00B6F90C302A601A0610D44FF480630EE0E8
:102F5C006A4600F0C5F80028F1DB019A02F47042D1
:102F6C00A2F500535A425A412A60EEE74023002052
:102F7C00236016B070BD00008B8973B59D070646A3
:102F8C000C4607D504F147032360236101236361D9
:102F9C0002B070BD6A4601ABFFF7C8FF0099054649
:102FAC003046FFF75BFA48B9B4F90C309A05EFD408
:102FBC0023F0030343F00203A381E3E70D4BB36259
:102FCC00A389206043F08003A381009B206163618F
:102FDC00019B5BB13046B4F90E1000F093F828B1A8
:102FEC00A38923F0030343F00103A381A0890543C4
:102FFC00A581CDE781220008034610B5C9B2024471
:10300C009342184601D1002003E0047801338C422E
:10301C00F6D110BD0148FFF7FFB900BF2004002016
:10302C000148FFF7FAB900BF2004002038B5054667
:10303C00002940D051F8043C0C1F002BB8BFE418F9
:10304C00FFF7E8FF1C4A136833B963601460284625
:10305C00BDE83840FFF7E4BFA34208D92068211827
:10306C008B4201BF19685B6809182160EDE71A46AD
:10307C005B680BB1A342FAD911685018A0420BD16E
:10308C0020680144501883421160E0D118685B68D5
:10309C00014411605360DAE702D90C232B60D6E7A8
:1030AC00206821188B4201BF19685B6809182160E0
:1030BC0063605460CBE738BD2404002038B5044667
:1030CC00084611460022054D2A601A46FDF748FABB
:1030DC00431C02D12B6803B1236038BD2C040020A3
:1030EC0038B50023064D0446084611462B60FDF703
:1030FC0056FA431C02D12B6803B1236038BD00BFC4
:10310C002C04002038B50023054D044608462B60DE
:10311C00FDF74AFA431C02D12B6803B1236038BD7A
:10312C002C040020F8B500BFF8BC08BC9E467047C4
:0C313C00F8B500BFF8BC08BC9E46704708
:10314800E887AAE5AE9AE4B989E587BDE695B0E8CF
:10315800BE93E587BAEFBC9AE4B8B2E58FA3E4B8AA
:10316800ADE696ADE68EA5E694B6E59B9EE698BEDE
:10317800E5AE9EE9AA8C0A000000000000000000ED
:103188000102030406070809000000000102030405
:1031980025730002030405060708090A0B0C0D0E27
:1031A8000F1010010202030405060708090A0B0C98
:1031B8000D0E0F101001020010000020000000008A
:1031C80000000000000000000000000000000000F7
:1031D80000000000000000000000000000000000E7
:1031E80000000000000000000000000000000000D7
:1031F80000000000000000000000000000000000C7
:1032080000000000000000000000000000000000B6
:10321800000000000000000000000000232D302BFB
:103228002000686C4C0065666745464700303132BF
:103238003334353637383941424344454600303116
:103248003233343536373839616263646566000075
:043258003101000838
:04325C000D01000858
:103260000024F40001000000100000001000002005
:1032700000000000E431000804320008C4310008F6
:10328000000000000000000000000000000000003E
:10329000000000000000000000000000000000002E
:1032A000000000000000000000000000000000001E
:1032B000000000000000000000000000000000000E
:1032C00000000000000000000000000000000000FE
:04000005080009499D
:00000001FF
